{
  "address": "0x060C30c0fC17dcfc643AE4b720E30F500A33C509",
  "abi": [
    {
      "inputs": [
        {
          "internalType": "address",
          "name": "_owner",
          "type": "address"
        }
      ],
      "stateMutability": "nonpayable",
      "type": "constructor"
    },
    {
      "inputs": [
        {
          "internalType": "address",
          "name": "owner",
          "type": "address"
        }
      ],
      "name": "OwnableInvalidOwner",
      "type": "error"
    },
    {
      "inputs": [
        {
          "internalType": "address",
          "name": "account",
          "type": "address"
        }
      ],
      "name": "OwnableUnauthorizedAccount",
      "type": "error"
    },
    {
      "anonymous": false,
      "inputs": [
        {
          "indexed": true,
          "internalType": "address",
          "name": "admin",
          "type": "address"
        },
        {
          "indexed": false,
          "internalType": "bool",
          "name": "enable",
          "type": "bool"
        }
      ],
      "name": "AdminSet",
      "type": "event"
    },
    {
      "anonymous": false,
      "inputs": [
        {
          "indexed": false,
          "internalType": "bytes32",
          "name": "id",
          "type": "bytes32"
        },
        {
          "indexed": true,
          "internalType": "enum InvestorProfileParams.InvestorCategory",
          "name": "category",
          "type": "uint8"
        }
      ],
      "name": "InvestorAdded",
      "type": "event"
    },
    {
      "anonymous": false,
      "inputs": [
        {
          "indexed": false,
          "internalType": "bytes32",
          "name": "id",
          "type": "bytes32"
        },
        {
          "indexed": false,
          "internalType": "string",
          "name": "name",
          "type": "string"
        }
      ],
      "name": "InvestorAssetAdded",
      "type": "event"
    },
    {
      "anonymous": false,
      "inputs": [
        {
          "indexed": true,
          "internalType": "address",
          "name": "previousOwner",
          "type": "address"
        },
        {
          "indexed": true,
          "internalType": "address",
          "name": "newOwner",
          "type": "address"
        }
      ],
      "name": "OwnershipTransferred",
      "type": "event"
    },
    {
      "anonymous": false,
      "inputs": [
        {
          "indexed": false,
          "internalType": "bytes32",
          "name": "id",
          "type": "bytes32"
        },
        {
          "indexed": false,
          "internalType": "bool",
          "name": "isActive",
          "type": "bool"
        }
      ],
      "name": "SetInvestorAsset",
      "type": "event"
    },
    {
      "anonymous": false,
      "inputs": [
        {
          "indexed": true,
          "internalType": "bytes32",
          "name": "investorId",
          "type": "bytes32"
        },
        {
          "indexed": true,
          "internalType": "bytes32",
          "name": "assetId",
          "type": "bytes32"
        },
        {
          "indexed": false,
          "internalType": "uint256",
          "name": "tokenAmount",
          "type": "uint256"
        },
        {
          "indexed": false,
          "internalType": "uint256",
          "name": "assetAmount",
          "type": "uint256"
        }
      ],
      "name": "UserInvested",
      "type": "event"
    },
    {
      "anonymous": false,
      "inputs": [
        {
          "indexed": true,
          "internalType": "bytes32",
          "name": "investorId",
          "type": "bytes32"
        },
        {
          "indexed": true,
          "internalType": "bytes32",
          "name": "assetId",
          "type": "bytes32"
        },
        {
          "indexed": false,
          "internalType": "uint256",
          "name": "assetAmount",
          "type": "uint256"
        }
      ],
      "name": "UserWithdraw",
      "type": "event"
    },
    {
      "inputs": [
        {
          "internalType": "bytes32",
          "name": "id",
          "type": "bytes32"
        },
        {
          "internalType": "string",
          "name": "name",
          "type": "string"
        },
        {
          "internalType": "uint256",
          "name": "chainId",
          "type": "uint256"
        },
        {
          "internalType": "address",
          "name": "investmentToken",
          "type": "address"
        },
        {
          "internalType": "address",
          "name": "assetToken",
          "type": "address"
        },
        {
          "internalType": "enum InvestorProfile.AssetCategory",
          "name": "category",
          "type": "uint8"
        }
      ],
      "name": "addAssetOption",
      "outputs": [],
      "stateMutability": "nonpayable",
      "type": "function"
    },
    {
      "inputs": [
        {
          "components": [
            {
              "internalType": "bytes32",
              "name": "investorId",
              "type": "bytes32"
            },
            {
              "internalType": "enum InvestorProfileParams.InvestorCategory",
              "name": "category",
              "type": "uint8"
            },
            {
              "internalType": "string",
              "name": "wallet",
              "type": "string"
            },
            {
              "internalType": "string",
              "name": "twitter",
              "type": "string"
            },
            {
              "internalType": "string",
              "name": "youtube",
              "type": "string"
            },
            {
              "internalType": "string",
              "name": "discord",
              "type": "string"
            },
            {
              "internalType": "string",
              "name": "telegram",
              "type": "string"
            }
          ],
          "internalType": "struct InvestorProfileParams.AddInvestorParams",
          "name": "params",
          "type": "tuple"
        }
      ],
      "name": "addInvestor",
      "outputs": [],
      "stateMutability": "nonpayable",
      "type": "function"
    },
    {
      "inputs": [
        {
          "internalType": "bytes32",
          "name": "investorId",
          "type": "bytes32"
        },
        {
          "internalType": "bytes32",
          "name": "assetId",
          "type": "bytes32"
        },
        {
          "internalType": "uint256",
          "name": "tokenAmount",
          "type": "uint256"
        },
        {
          "internalType": "uint256",
          "name": "assetAmount",
          "type": "uint256"
        }
      ],
      "name": "addUserInvestment",
      "outputs": [],
      "stateMutability": "nonpayable",
      "type": "function"
    },
    {
      "inputs": [
        {
          "internalType": "bytes32",
          "name": "",
          "type": "bytes32"
        }
      ],
      "name": "assets",
      "outputs": [
        {
          "internalType": "bytes32",
          "name": "id",
          "type": "bytes32"
        },
        {
          "internalType": "string",
          "name": "name",
          "type": "string"
        },
        {
          "internalType": "uint256",
          "name": "chainId",
          "type": "uint256"
        },
        {
          "internalType": "bool",
          "name": "isActive",
          "type": "bool"
        },
        {
          "internalType": "address",
          "name": "assetToken",
          "type": "address"
        },
        {
          "internalType": "address",
          "name": "investmentToken",
          "type": "address"
        },
        {
          "internalType": "enum InvestorProfile.AssetCategory",
          "name": "category",
          "type": "uint8"
        }
      ],
      "stateMutability": "view",
      "type": "function"
    },
    {
      "inputs": [
        {
          "internalType": "bytes32",
          "name": "investorId",
          "type": "bytes32"
        }
      ],
      "name": "getInvestor",
      "outputs": [
        {
          "components": [
            {
              "internalType": "bytes32",
              "name": "investorId",
              "type": "bytes32"
            },
            {
              "internalType": "enum InvestorProfileParams.Tier",
              "name": "otcOperator",
              "type": "uint8"
            },
            {
              "internalType": "enum InvestorProfileParams.Tier",
              "name": "signalSeeker",
              "type": "uint8"
            },
            {
              "internalType": "enum InvestorProfileParams.Tier",
              "name": "strategicSuit",
              "type": "uint8"
            },
            {
              "internalType": "enum InvestorProfileParams.Tier",
              "name": "nodeMaximalist",
              "type": "uint8"
            },
            {
              "internalType": "enum InvestorProfileParams.Tier",
              "name": "realworldRaider",
              "type": "uint8"
            },
            {
              "internalType": "enum InvestorProfileParams.Tier",
              "name": "launchpadLoyalist",
              "type": "uint8"
            },
            {
              "internalType": "enum InvestorProfileParams.InvestorCategory",
              "name": "category",
              "type": "uint8"
            }
          ],
          "internalType": "struct InvestorProfileParams.InvestorView",
          "name": "iview",
          "type": "tuple"
        }
      ],
      "stateMutability": "view",
      "type": "function"
    },
    {
      "inputs": [],
      "name": "owner",
      "outputs": [
        {
          "internalType": "address",
          "name": "",
          "type": "address"
        }
      ],
      "stateMutability": "view",
      "type": "function"
    },
    {
      "inputs": [],
      "name": "renounceOwnership",
      "outputs": [],
      "stateMutability": "nonpayable",
      "type": "function"
    },
    {
      "inputs": [
        {
          "internalType": "address",
          "name": "admin",
          "type": "address"
        },
        {
          "internalType": "bool",
          "name": "enable",
          "type": "bool"
        }
      ],
      "name": "setAdmin",
      "outputs": [],
      "stateMutability": "nonpayable",
      "type": "function"
    },
    {
      "inputs": [
        {
          "internalType": "bytes32",
          "name": "id",
          "type": "bytes32"
        },
        {
          "internalType": "bool",
          "name": "enable",
          "type": "bool"
        }
      ],
      "name": "setInvestmentOption",
      "outputs": [],
      "stateMutability": "nonpayable",
      "type": "function"
    },
    {
      "inputs": [
        {
          "internalType": "address",
          "name": "newOwner",
          "type": "address"
        }
      ],
      "name": "transferOwnership",
      "outputs": [],
      "stateMutability": "nonpayable",
      "type": "function"
    },
    {
      "inputs": [
        {
          "internalType": "bytes32",
          "name": "investorId",
          "type": "bytes32"
        },
        {
          "internalType": "bytes32",
          "name": "assetId",
          "type": "bytes32"
        },
        {
          "internalType": "uint256",
          "name": "assetAmount",
          "type": "uint256"
        }
      ],
      "name": "withdrawUserInvestment",
      "outputs": [],
      "stateMutability": "nonpayable",
      "type": "function"
    }
  ],
  "transactionHash": "0x58359ad3a7cee25a167544879d36476922bfefa1b29a6963b05806379f0172c6",
  "args": [
    "0x55ecEb75176fA99d6108a4a1f83766701556867B"
  ],
  "numDeployments": 5,
  "solcInputHash": "a88733da7250b67aa253bc8b3dd73706",
  "bytecode": "0x60806040523480156200001157600080fd5b5060405162003057380380620030578339818101604052810190620000379190620001f6565b8080600073ffffffffffffffffffffffffffffffffffffffff168173ffffffffffffffffffffffffffffffffffffffff1603620000ae5760006040517f1e4fbdf7000000000000000000000000000000000000000000000000000000008152600401620000a5919062000239565b60405180910390fd5b620000bf81620000c860201b60201c565b50505062000256565b60008060009054906101000a900473ffffffffffffffffffffffffffffffffffffffff169050816000806101000a81548173ffffffffffffffffffffffffffffffffffffffff021916908373ffffffffffffffffffffffffffffffffffffffff1602179055508173ffffffffffffffffffffffffffffffffffffffff168173ffffffffffffffffffffffffffffffffffffffff167f8be0079c531659141344cd1fd0a4f28419497f9722a3daafe3b4186f6b6457e060405160405180910390a35050565b600080fd5b600073ffffffffffffffffffffffffffffffffffffffff82169050919050565b6000620001be8262000191565b9050919050565b620001d081620001b1565b8114620001dc57600080fd5b50565b600081519050620001f081620001c5565b92915050565b6000602082840312156200020f576200020e6200018c565b5b60006200021f84828501620001df565b91505092915050565b6200023381620001b1565b82525050565b600060208201905062000250600083018462000228565b92915050565b612df180620002666000396000f3fe608060405234801561001057600080fd5b50600436106100a95760003560e01c8063715018a611610071578063715018a61461013a5780638d8e508a146101445780638da5cb5b146101605780639fda5b661461017e578063a35fab2e146101b4578063f2fde38b146101e4576100a9565b8063171fb512146100ae5780632d2a8788146100ca57806343eb0ae5146100e65780634b0bddd214610102578063544a96131461011e575b600080fd5b6100c860048036038101906100c39190611f5c565b610200565b005b6100e460048036038101906100df9190612005565b610619565b005b61010060048036038101906100fb91906121c7565b61093f565b005b61011c60048036038101906101179190612248565b610ac2565b005b61013860048036038101906101339190612288565b610b73565b005b610142610e24565b005b61015e600480360381019061015991906122c8565b610e38565b005b610168611379565b604051610175919061233e565b60405180910390f35b61019860048036038101906101939190612359565b6113a2565b6040516101ab97969594939291906124a9565b60405180910390f35b6101ce60048036038101906101c99190612359565b6114c6565b6040516101db9190612660565b60405180910390f35b6101fe60048036038101906101f9919061267c565b61199c565b005b610208611a22565b6000600360008881526020019081526020016000206040518060e001604052908160008201548152602001600182018054610242906126d8565b80601f016020809104026020016040519081016040528092919081815260200182805461026e906126d8565b80156102bb5780601f10610290576101008083540402835291602001916102bb565b820191906000526020600020905b81548152906001019060200180831161029e57829003601f168201915b50505050508152602001600282015481526020016003820160009054906101000a900460ff161515151581526020016003820160019054906101000a900473ffffffffffffffffffffffffffffffffffffffff1673ffffffffffffffffffffffffffffffffffffffff1673ffffffffffffffffffffffffffffffffffffffff1681526020016004820160009054906101000a900473ffffffffffffffffffffffffffffffffffffffff1673ffffffffffffffffffffffffffffffffffffffff1673ffffffffffffffffffffffffffffffffffffffff1681526020016004820160149054906101000a900460ff1660058111156103ba576103b9612432565b5b60058111156103cc576103cb612432565b5b815250509050600073ffffffffffffffffffffffffffffffffffffffff168160a0015173ffffffffffffffffffffffffffffffffffffffff1614610445576040517f08c379a000000000000000000000000000000000000000000000000000000000815260040161043c90612755565b60405180910390fd5b6040518060e001604052808881526020018781526020018681526020016001151581526020018473ffffffffffffffffffffffffffffffffffffffff1681526020018573ffffffffffffffffffffffffffffffffffffffff1681526020018360058111156104b6576104b5612432565b5b815250600360008981526020019081526020016000206000820151816000015560208201518160010190816104eb9190612921565b506040820151816002015560608201518160030160006101000a81548160ff02191690831515021790555060808201518160030160016101000a81548173ffffffffffffffffffffffffffffffffffffffff021916908373ffffffffffffffffffffffffffffffffffffffff16021790555060a08201518160040160006101000a81548173ffffffffffffffffffffffffffffffffffffffff021916908373ffffffffffffffffffffffffffffffffffffffff16021790555060c08201518160040160146101000a81548160ff021916908360058111156105cf576105ce612432565b5b02179055509050507f16e326671af52e8aa72f69e003dc3359c6d5fdcfad013195980f8eeab5493c6087876040516106089291906129f3565b60405180910390a150505050505050565b610621611aa9565b6000600360008481526020019081526020016000206040518060e00160405290816000820154815260200160018201805461065b906126d8565b80601f0160208091040260200160405190810160405280929190818152602001828054610687906126d8565b80156106d45780601f106106a9576101008083540402835291602001916106d4565b820191906000526020600020905b8154815290600101906020018083116106b757829003601f168201915b50505050508152602001600282015481526020016003820160009054906101000a900460ff161515151581526020016003820160019054906101000a900473ffffffffffffffffffffffffffffffffffffffff1673ffffffffffffffffffffffffffffffffffffffff1673ffffffffffffffffffffffffffffffffffffffff1681526020016004820160009054906101000a900473ffffffffffffffffffffffffffffffffffffffff1673ffffffffffffffffffffffffffffffffffffffff1673ffffffffffffffffffffffffffffffffffffffff1681526020016004820160149054906101000a900460ff1660058111156107d3576107d2612432565b5b60058111156107e5576107e4612432565b5b815250509050600073ffffffffffffffffffffffffffffffffffffffff168160a0015173ffffffffffffffffffffffffffffffffffffffff160361085e576040517f08c379a000000000000000000000000000000000000000000000000000000000815260040161085590612a6f565b60405180910390fd5b60006002600086815260200190815260200160002090508281600f0160008681526020019081526020016000206001015410156108d0576040517f08c379a00000000000000000000000000000000000000000000000000000000081526004016108c790612adb565b60405180910390fd5b8281600f01600086815260200190815260200160002060010160008282546108f89190612b2a565b9250508190555083857fa25c50ade3cd04a651105e7cc70b099f0d4e30f165a387f7120d7a1e83b0d89e856040516109309190612b5e565b60405180910390a35050505050565b610947611aa9565b6000801b600260008360000151815260200190815260200160002060000154146109a6576040517f08c379a000000000000000000000000000000000000000000000000000000000815260040161099d90612bc5565b60405180910390fd5b6000600260008360000151815260200190815260200160002090508160000151816000018190555081602001518160010160006101000a81548160ff021916908360038111156109f9576109f8612432565b5b0217905550816040015181600a019081610a139190612921565b50816060015181600b019081610a299190612921565b50816080015181600c019081610a3f9190612921565b508160a0015181600d019081610a559190612921565b508160c0015181600e019081610a6b9190612921565b5081602001516003811115610a8357610a82612432565b5b7fad7bdab74417facd46f51a883dad12566dfc0cc6ca4427678cae2ddf3dcba8a48360000151604051610ab69190612be5565b60405180910390a25050565b610aca611a22565b80600160008473ffffffffffffffffffffffffffffffffffffffff1673ffffffffffffffffffffffffffffffffffffffff16815260200190815260200160002060006101000a81548160ff0219169083151502179055508173ffffffffffffffffffffffffffffffffffffffff167fe68d2c359a771606c400cf8b87000cf5864010363d6a736e98f5047b7bbe18e982604051610b679190612c00565b60405180910390a25050565b610b7b611a22565b6000600360008481526020019081526020016000206040518060e001604052908160008201548152602001600182018054610bb5906126d8565b80601f0160208091040260200160405190810160405280929190818152602001828054610be1906126d8565b8015610c2e5780601f10610c0357610100808354040283529160200191610c2e565b820191906000526020600020905b815481529060010190602001808311610c1157829003601f168201915b50505050508152602001600282015481526020016003820160009054906101000a900460ff161515151581526020016003820160019054906101000a900473ffffffffffffffffffffffffffffffffffffffff1673ffffffffffffffffffffffffffffffffffffffff1673ffffffffffffffffffffffffffffffffffffffff1681526020016004820160009054906101000a900473ffffffffffffffffffffffffffffffffffffffff1673ffffffffffffffffffffffffffffffffffffffff1673ffffffffffffffffffffffffffffffffffffffff1681526020016004820160149054906101000a900460ff166005811115610d2d57610d2c612432565b5b6005811115610d3f57610d3e612432565b5b815250509050600073ffffffffffffffffffffffffffffffffffffffff168160a0015173ffffffffffffffffffffffffffffffffffffffff1603610db8576040517f08c379a0000000000000000000000000000000000000000000000000000000008152600401610daf90612c67565b60405180910390fd5b816003600085815260200190815260200160002060030160006101000a81548160ff0219169083151502179055507f6316e9e8f37c7ac21fa13914f9a9f3d09b95e5fa2f4fa40ab91f4721912c6e678383604051610e17929190612c87565b60405180910390a1505050565b610e2c611a22565b610e366000611b81565b565b610e40611aa9565b6000600360008581526020019081526020016000206040518060e001604052908160008201548152602001600182018054610e7a906126d8565b80601f0160208091040260200160405190810160405280929190818152602001828054610ea6906126d8565b8015610ef35780601f10610ec857610100808354040283529160200191610ef3565b820191906000526020600020905b815481529060010190602001808311610ed657829003601f168201915b50505050508152602001600282015481526020016003820160009054906101000a900460ff161515151581526020016003820160019054906101000a900473ffffffffffffffffffffffffffffffffffffffff1673ffffffffffffffffffffffffffffffffffffffff1673ffffffffffffffffffffffffffffffffffffffff1681526020016004820160009054906101000a900473ffffffffffffffffffffffffffffffffffffffff1673ffffffffffffffffffffffffffffffffffffffff1673ffffffffffffffffffffffffffffffffffffffff1681526020016004820160149054906101000a900460ff166005811115610ff257610ff1612432565b5b600581111561100457611003612432565b5b815250509050600073ffffffffffffffffffffffffffffffffffffffff168160a0015173ffffffffffffffffffffffffffffffffffffffff160361107d576040517f08c379a000000000000000000000000000000000000000000000000000000000815260040161107490612a6f565b60405180910390fd5b60006002600087815260200190815260200160002090506000801b8160000154036110dd576040517f08c379a00000000000000000000000000000000000000000000000000000000081526004016110d490612bc5565b60405180910390fd5b8381600f01600087815260200190815260200160002060000160008282546111059190612cb0565b925050819055508281600f01600087815260200190815260200160002060010160008282546111349190612cb0565b925050819055506003600581111561114f5761114e612432565b5b8260c00151600581111561116657611165612432565b5b0361118b578381600601600082825461117f9190612cb0565b9250508190555061131b565b6000600581111561119f5761119e612432565b5b8260c0015160058111156111b6576111b5612432565b5b036111db57838160040160008282546111cf9190612cb0565b9250508190555061131a565b600460058111156111ef576111ee612432565b5b8260c00151600581111561120657611205612432565b5b0361122b578381600801600082825461121f9190612cb0565b92505081905550611319565b6002600581111561123f5761123e612432565b5b8260c00151600581111561125657611255612432565b5b0361127b578381600201600082825461126f9190612cb0565b92505081905550611318565b6001600581111561128f5761128e612432565b5b8260c0015160058111156112a6576112a5612432565b5b036112cb57838160050160008282546112bf9190612cb0565b92505081905550611317565b6005808111156112de576112dd612432565b5b8260c0015160058111156112f5576112f4612432565b5b03611316578381600901600082825461130e9190612cb0565b925050819055505b5b5b5b5b5b8381600301600082825461132f9190612cb0565b9250508190555084867fee40770bb62dbe8676b49925339cc79342693609b6c807b2fc8bea82e87e28518686604051611369929190612ce4565b60405180910390a3505050505050565b60008060009054906101000a900473ffffffffffffffffffffffffffffffffffffffff16905090565b60036020528060005260406000206000915090508060000154908060010180546113cb906126d8565b80601f01602080910402602001604051908101604052809291908181526020018280546113f7906126d8565b80156114445780601f1061141957610100808354040283529160200191611444565b820191906000526020600020905b81548152906001019060200180831161142757829003601f168201915b5050505050908060020154908060030160009054906101000a900460ff16908060030160019054906101000a900473ffffffffffffffffffffffffffffffffffffffff16908060040160009054906101000a900473ffffffffffffffffffffffffffffffffffffffff16908060040160149054906101000a900460ff16905087565b6114ce611c4d565b60006002600084815260200190815260200160002090506000801b81600001540361152e576040517f08c379a000000000000000000000000000000000000000000000000000000000815260040161152590612bc5565b60405180910390fd5b806000015482600001818152505060008260400190600281111561155557611554612432565b5b9081600281111561156957611568612432565b5b81525050620f424061271061157e9190612d0d565b8160020154106115be576002826020019060028111156115a1576115a0612432565b5b908160028111156115b5576115b4612432565b5b81525050611642565b620f42406103e86115cf9190612d0d565b81600201541061160f576001826020019060028111156115f2576115f1612432565b5b9081600281111561160657611605612432565b5b81525050611641565b60008260200190600281111561162857611627612432565b5b9081600281111561163c5761163b612432565b5b815250505b5b620f42406127106116539190612d0d565b8160090154106116935760028260a00190600281111561167657611675612432565b5b9081600281111561168a57611689612432565b5b81525050611717565b620f42406103e86116a49190612d0d565b8160090154106116e45760018260a0019060028111156116c7576116c6612432565b5b908160028111156116db576116da612432565b5b81525050611716565b60008260a0019060028111156116fd576116fc612432565b5b9081600281111561171157611710612432565b5b815250505b5b620f42406127106117289190612d0d565b8160060154106117685760028260800190600281111561174b5761174a612432565b5b9081600281111561175f5761175e612432565b5b815250506117ec565b620f42406103e86117799190612d0d565b8160060154106117b95760018260800190600281111561179c5761179b612432565b5b908160028111156117b0576117af612432565b5b815250506117eb565b6000826080019060028111156117d2576117d1612432565b5b908160028111156117e6576117e5612432565b5b815250505b5b620f42406161a86117fd9190612d0d565b81600401541061183d576002826060019060028111156118205761181f612432565b5b9081600281111561183457611833612432565b5b815250506118c1565b620f424061138861184e9190612d0d565b81600401541061188e5760018260600190600281111561187157611870612432565b5b9081600281111561188557611884612432565b5b815250506118c0565b6000826060019060028111156118a7576118a6612432565b5b908160028111156118bb576118ba612432565b5b815250505b5b620f42406127106118d29190612d0d565b8160080154106119125760028260c0019060028111156118f5576118f4612432565b5b9081600281111561190957611908612432565b5b81525050611996565b620f42406103e86119239190612d0d565b8160080154106119635760018260c00190600281111561194657611945612432565b5b9081600281111561195a57611959612432565b5b81525050611995565b60008260c00190600281111561197c5761197b612432565b5b908160028111156119905761198f612432565b5b815250505b5b50919050565b6119a4611a22565b600073ffffffffffffffffffffffffffffffffffffffff168173ffffffffffffffffffffffffffffffffffffffff1603611a165760006040517f1e4fbdf7000000000000000000000000000000000000000000000000000000008152600401611a0d919061233e565b60405180910390fd5b611a1f81611b81565b50565b611a2a611c45565b73ffffffffffffffffffffffffffffffffffffffff16611a48611379565b73ffffffffffffffffffffffffffffffffffffffff1614611aa757611a6b611c45565b6040517f118cdaa7000000000000000000000000000000000000000000000000000000008152600401611a9e919061233e565b60405180910390fd5b565b6000611ab3611c45565b9050600160008273ffffffffffffffffffffffffffffffffffffffff1673ffffffffffffffffffffffffffffffffffffffff16815260200190815260200160002060009054906101000a900460ff1680611b3f57508073ffffffffffffffffffffffffffffffffffffffff16611b27611379565b73ffffffffffffffffffffffffffffffffffffffff16145b611b7e576040517f08c379a0000000000000000000000000000000000000000000000000000000008152600401611b7590612d9b565b60405180910390fd5b50565b60008060009054906101000a900473ffffffffffffffffffffffffffffffffffffffff169050816000806101000a81548173ffffffffffffffffffffffffffffffffffffffff021916908373ffffffffffffffffffffffffffffffffffffffff1602179055508173ffffffffffffffffffffffffffffffffffffffff168173ffffffffffffffffffffffffffffffffffffffff167f8be0079c531659141344cd1fd0a4f28419497f9722a3daafe3b4186f6b6457e060405160405180910390a35050565b600033905090565b6040518061010001604052806000801916815260200160006002811115611c7757611c76612432565b5b815260200160006002811115611c9057611c8f612432565b5b815260200160006002811115611ca957611ca8612432565b5b815260200160006002811115611cc257611cc1612432565b5b815260200160006002811115611cdb57611cda612432565b5b815260200160006002811115611cf457611cf3612432565b5b815260200160006003811115611d0d57611d0c612432565b5b81525090565b6000604051905090565b600080fd5b600080fd5b6000819050919050565b611d3a81611d27565b8114611d4557600080fd5b50565b600081359050611d5781611d31565b92915050565b600080fd5b600080fd5b6000601f19601f8301169050919050565b7f4e487b7100000000000000000000000000000000000000000000000000000000600052604160045260246000fd5b611db082611d67565b810181811067ffffffffffffffff82111715611dcf57611dce611d78565b5b80604052505050565b6000611de2611d13565b9050611dee8282611da7565b919050565b600067ffffffffffffffff821115611e0e57611e0d611d78565b5b611e1782611d67565b9050602081019050919050565b82818337600083830152505050565b6000611e46611e4184611df3565b611dd8565b905082815260208101848484011115611e6257611e61611d62565b5b611e6d848285611e24565b509392505050565b600082601f830112611e8a57611e89611d5d565b5b8135611e9a848260208601611e33565b91505092915050565b6000819050919050565b611eb681611ea3565b8114611ec157600080fd5b50565b600081359050611ed381611ead565b92915050565b600073ffffffffffffffffffffffffffffffffffffffff82169050919050565b6000611f0482611ed9565b9050919050565b611f1481611ef9565b8114611f1f57600080fd5b50565b600081359050611f3181611f0b565b92915050565b60068110611f4457600080fd5b50565b600081359050611f5681611f37565b92915050565b60008060008060008060c08789031215611f7957611f78611d1d565b5b6000611f8789828a01611d48565b965050602087013567ffffffffffffffff811115611fa857611fa7611d22565b5b611fb489828a01611e75565b9550506040611fc589828a01611ec4565b9450506060611fd689828a01611f22565b9350506080611fe789828a01611f22565b92505060a0611ff889828a01611f47565b9150509295509295509295565b60008060006060848603121561201e5761201d611d1d565b5b600061202c86828701611d48565b935050602061203d86828701611d48565b925050604061204e86828701611ec4565b9150509250925092565b600080fd5b600080fd5b6004811061206f57600080fd5b50565b60008135905061208181612062565b92915050565b600060e0828403121561209d5761209c612058565b5b6120a760e0611dd8565b905060006120b784828501611d48565b60008301525060206120cb84828501612072565b602083015250604082013567ffffffffffffffff8111156120ef576120ee61205d565b5b6120fb84828501611e75565b604083015250606082013567ffffffffffffffff81111561211f5761211e61205d565b5b61212b84828501611e75565b606083015250608082013567ffffffffffffffff81111561214f5761214e61205d565b5b61215b84828501611e75565b60808301525060a082013567ffffffffffffffff81111561217f5761217e61205d565b5b61218b84828501611e75565b60a08301525060c082013567ffffffffffffffff8111156121af576121ae61205d565b5b6121bb84828501611e75565b60c08301525092915050565b6000602082840312156121dd576121dc611d1d565b5b600082013567ffffffffffffffff8111156121fb576121fa611d22565b5b61220784828501612087565b91505092915050565b60008115159050919050565b61222581612210565b811461223057600080fd5b50565b6000813590506122428161221c565b92915050565b6000806040838503121561225f5761225e611d1d565b5b600061226d85828601611f22565b925050602061227e85828601612233565b9150509250929050565b6000806040838503121561229f5761229e611d1d565b5b60006122ad85828601611d48565b92505060206122be85828601612233565b9150509250929050565b600080600080608085870312156122e2576122e1611d1d565b5b60006122f087828801611d48565b945050602061230187828801611d48565b935050604061231287828801611ec4565b925050606061232387828801611ec4565b91505092959194509250565b61233881611ef9565b82525050565b6000602082019050612353600083018461232f565b92915050565b60006020828403121561236f5761236e611d1d565b5b600061237d84828501611d48565b91505092915050565b61238f81611d27565b82525050565b600081519050919050565b600082825260208201905092915050565b60005b838110156123cf5780820151818401526020810190506123b4565b60008484015250505050565b60006123e682612395565b6123f081856123a0565b93506124008185602086016123b1565b61240981611d67565b840191505092915050565b61241d81611ea3565b82525050565b61242c81612210565b82525050565b7f4e487b7100000000000000000000000000000000000000000000000000000000600052602160045260246000fd5b6006811061247257612471612432565b5b50565b600081905061248382612461565b919050565b600061249382612475565b9050919050565b6124a381612488565b82525050565b600060e0820190506124be600083018a612386565b81810360208301526124d081896123db565b90506124df6040830188612414565b6124ec6060830187612423565b6124f9608083018661232f565b61250660a083018561232f565b61251360c083018461249a565b98975050505050505050565b61252881611d27565b82525050565b6003811061253f5761253e612432565b5b50565b60008190506125508261252e565b919050565b600061256082612542565b9050919050565b61257081612555565b82525050565b6004811061258757612586612432565b5b50565b600081905061259882612576565b919050565b60006125a88261258a565b9050919050565b6125b88161259d565b82525050565b610100820160008201516125d5600085018261251f565b5060208201516125e86020850182612567565b5060408201516125fb6040850182612567565b50606082015161260e6060850182612567565b5060808201516126216080850182612567565b5060a082015161263460a0850182612567565b5060c082015161264760c0850182612567565b5060e082015161265a60e08501826125af565b50505050565b60006101008201905061267660008301846125be565b92915050565b60006020828403121561269257612691611d1d565b5b60006126a084828501611f22565b91505092915050565b7f4e487b7100000000000000000000000000000000000000000000000000000000600052602260045260246000fd5b600060028204905060018216806126f057607f821691505b602082108103612703576127026126a9565b5b50919050565b7f496420616c72656164792074616b656e00000000000000000000000000000000600082015250565b600061273f6010836123a0565b915061274a82612709565b602082019050919050565b6000602082019050818103600083015261276e81612732565b9050919050565b60008190508160005260206000209050919050565b60006020601f8301049050919050565b600082821b905092915050565b6000600883026127d77fffffffffffffffffffffffffffffffffffffffffffffffffffffffffffffffff8261279a565b6127e1868361279a565b95508019841693508086168417925050509392505050565b6000819050919050565b600061281e61281961281484611ea3565b6127f9565b611ea3565b9050919050565b6000819050919050565b61283883612803565b61284c61284482612825565b8484546127a7565b825550505050565b600090565b612861612854565b61286c81848461282f565b505050565b5b8181101561289057612885600082612859565b600181019050612872565b5050565b601f8211156128d5576128a681612775565b6128af8461278a565b810160208510156128be578190505b6128d26128ca8561278a565b830182612871565b50505b505050565b600082821c905092915050565b60006128f8600019846008026128da565b1980831691505092915050565b600061291183836128e7565b9150826002028217905092915050565b61292a82612395565b67ffffffffffffffff81111561294357612942611d78565b5b61294d82546126d8565b612958828285612894565b600060209050601f83116001811461298b5760008415612979578287015190505b6129838582612905565b8655506129eb565b601f19841661299986612775565b60005b828110156129c15784890151825560018201915060208501945060208101905061299c565b868310156129de57848901516129da601f8916826128e7565b8355505b6001600288020188555050505b505050505050565b6000604082019050612a086000830185612386565b8181036020830152612a1a81846123db565b90509392505050565b7f496e76616c696420617373657420696400000000000000000000000000000000600082015250565b6000612a596010836123a0565b9150612a6482612a23565b602082019050919050565b60006020820190508181036000830152612a8881612a4c565b9050919050565b7f496e76616c696420776974686472617720616d6f756e74000000000000000000600082015250565b6000612ac56017836123a0565b9150612ad082612a8f565b602082019050919050565b60006020820190508181036000830152612af481612ab8565b9050919050565b7f4e487b7100000000000000000000000000000000000000000000000000000000600052601160045260246000fd5b6000612b3582611ea3565b9150612b4083611ea3565b9250828203905081811115612b5857612b57612afb565b5b92915050565b6000602082019050612b736000830184612414565b92915050565b7f696e76616c696420696e766573746f7220696400000000000000000000000000600082015250565b6000612baf6013836123a0565b9150612bba82612b79565b602082019050919050565b60006020820190508181036000830152612bde81612ba2565b9050919050565b6000602082019050612bfa6000830184612386565b92915050565b6000602082019050612c156000830184612423565b92915050565b7f496e76616c696420696400000000000000000000000000000000000000000000600082015250565b6000612c51600a836123a0565b9150612c5c82612c1b565b602082019050919050565b60006020820190508181036000830152612c8081612c44565b9050919050565b6000604082019050612c9c6000830185612386565b612ca96020830184612423565b9392505050565b6000612cbb82611ea3565b9150612cc683611ea3565b9250828201905080821115612cde57612cdd612afb565b5b92915050565b6000604082019050612cf96000830185612414565b612d066020830184612414565b9392505050565b6000612d1882611ea3565b9150612d2383611ea3565b9250828202612d3181611ea3565b91508282048414831517612d4857612d47612afb565b5b5092915050565b7f526f6c65733a204e6f7420616c6c6f7765640000000000000000000000000000600082015250565b6000612d856012836123a0565b9150612d9082612d4f565b602082019050919050565b60006020820190508181036000830152612db481612d78565b905091905056fea2646970667358221220d3b45d20380bbeffa1386d9966392232e5adbcbd61cb28ffe3b6702e328e577064736f6c63430008140033",
  "devdoc": {
    "errors": {
      "OwnableInvalidOwner(address)": [
        {
          "details": "The owner is not a valid owner account. (eg. `address(0)`)"
        }
      ],
      "OwnableUnauthorizedAccount(address)": [
        {
          "details": "The caller account is not authorized to perform an operation."
        }
      ]
    },
    "kind": "dev",
    "methods": {
      "owner()": {
        "details": "Returns the address of the current owner."
      },
      "renounceOwnership()": {
        "details": "Leaves the contract without owner. It will not be possible to call `onlyOwner` functions. Can only be called by the current owner. NOTE: Renouncing ownership will leave the contract without an owner, thereby disabling any functionality that is only available to the owner."
      },
      "transferOwnership(address)": {
        "details": "Transfers ownership of the contract to a new account (`newOwner`). Can only be called by the current owner."
      }
    },
    "version": 1
  },
  "userdoc": {
    "kind": "user",
    "methods": {},
    "version": 1
  },
  "storageLayout": {
    "storage": [
      {
        "astId": 8,
        "contract": "contracts/InvestorProfile.sol:InvestorProfile",
        "label": "_owner",
        "offset": 0,
        "slot": "0",
        "type": "t_address"
      },
      {
        "astId": 1016,
        "contract": "contracts/InvestorProfile.sol:InvestorProfile",
        "label": "admins",
        "offset": 0,
        "slot": "1",
        "type": "t_mapping(t_address,t_bool)"
      },
      {
        "astId": 304,
        "contract": "contracts/InvestorProfile.sol:InvestorProfile",
        "label": "investors",
        "offset": 0,
        "slot": "2",
        "type": "t_mapping(t_bytes32,t_struct(Investor)262_storage)"
      },
      {
        "astId": 309,
        "contract": "contracts/InvestorProfile.sol:InvestorProfile",
        "label": "assets",
        "offset": 0,
        "slot": "3",
        "type": "t_mapping(t_bytes32,t_struct(Asset)225_storage)"
      }
    ],
    "types": {
      "t_address": {
        "encoding": "inplace",
        "label": "address",
        "numberOfBytes": "20"
      },
      "t_bool": {
        "encoding": "inplace",
        "label": "bool",
        "numberOfBytes": "1"
      },
      "t_bytes32": {
        "encoding": "inplace",
        "label": "bytes32",
        "numberOfBytes": "32"
      },
      "t_enum(AssetCategory)204": {
        "encoding": "inplace",
        "label": "enum InvestorProfile.AssetCategory",
        "numberOfBytes": "1"
      },
      "t_enum(InvestorCategory)953": {
        "encoding": "inplace",
        "label": "enum InvestorProfileParams.InvestorCategory",
        "numberOfBytes": "1"
      },
      "t_mapping(t_address,t_bool)": {
        "encoding": "mapping",
        "key": "t_address",
        "label": "mapping(address => bool)",
        "numberOfBytes": "32",
        "value": "t_bool"
      },
      "t_mapping(t_bytes32,t_struct(Asset)225_storage)": {
        "encoding": "mapping",
        "key": "t_bytes32",
        "label": "mapping(bytes32 => struct InvestorProfile.Asset)",
        "numberOfBytes": "32",
        "value": "t_struct(Asset)225_storage"
      },
      "t_mapping(t_bytes32,t_struct(Investment)209_storage)": {
        "encoding": "mapping",
        "key": "t_bytes32",
        "label": "mapping(bytes32 => struct InvestorProfile.Investment)",
        "numberOfBytes": "32",
        "value": "t_struct(Investment)209_storage"
      },
      "t_mapping(t_bytes32,t_struct(Investor)262_storage)": {
        "encoding": "mapping",
        "key": "t_bytes32",
        "label": "mapping(bytes32 => struct InvestorProfile.Investor)",
        "numberOfBytes": "32",
        "value": "t_struct(Investor)262_storage"
      },
      "t_string_storage": {
        "encoding": "bytes",
        "label": "string",
        "numberOfBytes": "32"
      },
      "t_struct(Asset)225_storage": {
        "encoding": "inplace",
        "label": "struct InvestorProfile.Asset",
        "members": [
          {
            "astId": 211,
            "contract": "contracts/InvestorProfile.sol:InvestorProfile",
            "label": "id",
            "offset": 0,
            "slot": "0",
            "type": "t_bytes32"
          },
          {
            "astId": 213,
            "contract": "contracts/InvestorProfile.sol:InvestorProfile",
            "label": "name",
            "offset": 0,
            "slot": "1",
            "type": "t_string_storage"
          },
          {
            "astId": 215,
            "contract": "contracts/InvestorProfile.sol:InvestorProfile",
            "label": "chainId",
            "offset": 0,
            "slot": "2",
            "type": "t_uint256"
          },
          {
            "astId": 217,
            "contract": "contracts/InvestorProfile.sol:InvestorProfile",
            "label": "isActive",
            "offset": 0,
            "slot": "3",
            "type": "t_bool"
          },
          {
            "astId": 219,
            "contract": "contracts/InvestorProfile.sol:InvestorProfile",
            "label": "assetToken",
            "offset": 1,
            "slot": "3",
            "type": "t_address"
          },
          {
            "astId": 221,
            "contract": "contracts/InvestorProfile.sol:InvestorProfile",
            "label": "investmentToken",
            "offset": 0,
            "slot": "4",
            "type": "t_address"
          },
          {
            "astId": 224,
            "contract": "contracts/InvestorProfile.sol:InvestorProfile",
            "label": "category",
            "offset": 20,
            "slot": "4",
            "type": "t_enum(AssetCategory)204"
          }
        ],
        "numberOfBytes": "160"
      },
      "t_struct(Investment)209_storage": {
        "encoding": "inplace",
        "label": "struct InvestorProfile.Investment",
        "members": [
          {
            "astId": 206,
            "contract": "contracts/InvestorProfile.sol:InvestorProfile",
            "label": "investmentAmount",
            "offset": 0,
            "slot": "0",
            "type": "t_uint256"
          },
          {
            "astId": 208,
            "contract": "contracts/InvestorProfile.sol:InvestorProfile",
            "label": "assetAmount",
            "offset": 0,
            "slot": "1",
            "type": "t_uint256"
          }
        ],
        "numberOfBytes": "64"
      },
      "t_struct(Investor)262_storage": {
        "encoding": "inplace",
        "label": "struct InvestorProfile.Investor",
        "members": [
          {
            "astId": 227,
            "contract": "contracts/InvestorProfile.sol:InvestorProfile",
            "label": "investorId",
            "offset": 0,
            "slot": "0",
            "type": "t_bytes32"
          },
          {
            "astId": 230,
            "contract": "contracts/InvestorProfile.sol:InvestorProfile",
            "label": "category",
            "offset": 0,
            "slot": "1",
            "type": "t_enum(InvestorCategory)953"
          },
          {
            "astId": 232,
            "contract": "contracts/InvestorProfile.sol:InvestorProfile",
            "label": "otcInvestment",
            "offset": 0,
            "slot": "2",
            "type": "t_uint256"
          },
          {
            "astId": 234,
            "contract": "contracts/InvestorProfile.sol:InvestorProfile",
            "label": "totalInvestment",
            "offset": 0,
            "slot": "3",
            "type": "t_uint256"
          },
          {
            "astId": 236,
            "contract": "contracts/InvestorProfile.sol:InvestorProfile",
            "label": "vcSaleInvestment",
            "offset": 0,
            "slot": "4",
            "type": "t_uint256"
          },
          {
            "astId": 238,
            "contract": "contracts/InvestorProfile.sol:InvestorProfile",
            "label": "signalsInvestment",
            "offset": 0,
            "slot": "5",
            "type": "t_uint256"
          },
          {
            "astId": 240,
            "contract": "contracts/InvestorProfile.sol:InvestorProfile",
            "label": "nodeSaleInvestment",
            "offset": 0,
            "slot": "6",
            "type": "t_uint256"
          },
          {
            "astId": 242,
            "contract": "contracts/InvestorProfile.sol:InvestorProfile",
            "label": "launchpadInvestment",
            "offset": 0,
            "slot": "7",
            "type": "t_uint256"
          },
          {
            "astId": 244,
            "contract": "contracts/InvestorProfile.sol:InvestorProfile",
            "label": "publicSaleInvestment",
            "offset": 0,
            "slot": "8",
            "type": "t_uint256"
          },
          {
            "astId": 246,
            "contract": "contracts/InvestorProfile.sol:InvestorProfile",
            "label": "yieldAggregatorInvestment",
            "offset": 0,
            "slot": "9",
            "type": "t_uint256"
          },
          {
            "astId": 248,
            "contract": "contracts/InvestorProfile.sol:InvestorProfile",
            "label": "wallet",
            "offset": 0,
            "slot": "10",
            "type": "t_string_storage"
          },
          {
            "astId": 250,
            "contract": "contracts/InvestorProfile.sol:InvestorProfile",
            "label": "twitter",
            "offset": 0,
            "slot": "11",
            "type": "t_string_storage"
          },
          {
            "astId": 252,
            "contract": "contracts/InvestorProfile.sol:InvestorProfile",
            "label": "youtube",
            "offset": 0,
            "slot": "12",
            "type": "t_string_storage"
          },
          {
            "astId": 254,
            "contract": "contracts/InvestorProfile.sol:InvestorProfile",
            "label": "discord",
            "offset": 0,
            "slot": "13",
            "type": "t_string_storage"
          },
          {
            "astId": 256,
            "contract": "contracts/InvestorProfile.sol:InvestorProfile",
            "label": "telegram",
            "offset": 0,
            "slot": "14",
            "type": "t_string_storage"
          },
          {
            "astId": 261,
            "contract": "contracts/InvestorProfile.sol:InvestorProfile",
            "label": "investments",
            "offset": 0,
            "slot": "15",
            "type": "t_mapping(t_bytes32,t_struct(Investment)209_storage)"
          }
        ],
        "numberOfBytes": "512"
      },
      "t_uint256": {
        "encoding": "inplace",
        "label": "uint256",
        "numberOfBytes": "32"
      }
    }
  }
}