{
  "address": "0x814e444258266f27CeD3a066d7DE3cd972e9a4Ee",
  "abi": [
    {
      "inputs": [
        {
          "internalType": "address",
          "name": "_owner",
          "type": "address"
        }
      ],
      "stateMutability": "nonpayable",
      "type": "constructor"
    },
    {
      "inputs": [
        {
          "internalType": "address",
          "name": "owner",
          "type": "address"
        }
      ],
      "name": "OwnableInvalidOwner",
      "type": "error"
    },
    {
      "inputs": [
        {
          "internalType": "address",
          "name": "account",
          "type": "address"
        }
      ],
      "name": "OwnableUnauthorizedAccount",
      "type": "error"
    },
    {
      "anonymous": false,
      "inputs": [
        {
          "indexed": true,
          "internalType": "address",
          "name": "admin",
          "type": "address"
        },
        {
          "indexed": false,
          "internalType": "bool",
          "name": "enable",
          "type": "bool"
        }
      ],
      "name": "AdminSet",
      "type": "event"
    },
    {
      "anonymous": false,
      "inputs": [
        {
          "indexed": false,
          "internalType": "bytes32",
          "name": "id",
          "type": "bytes32"
        },
        {
          "indexed": true,
          "internalType": "enum InvestorProfileParams.InvestorCategory",
          "name": "category",
          "type": "uint8"
        }
      ],
      "name": "InvestorAdded",
      "type": "event"
    },
    {
      "anonymous": false,
      "inputs": [
        {
          "indexed": false,
          "internalType": "bytes32",
          "name": "id",
          "type": "bytes32"
        },
        {
          "indexed": false,
          "internalType": "string",
          "name": "name",
          "type": "string"
        }
      ],
      "name": "InvestorAssetAdded",
      "type": "event"
    },
    {
      "anonymous": false,
      "inputs": [
        {
          "indexed": false,
          "internalType": "bytes32",
          "name": "id",
          "type": "bytes32"
        },
        {
          "indexed": true,
          "internalType": "enum InvestorProfileParams.InvestorCategory",
          "name": "category",
          "type": "uint8"
        }
      ],
      "name": "InvestorUpdated",
      "type": "event"
    },
    {
      "anonymous": false,
      "inputs": [
        {
          "indexed": true,
          "internalType": "address",
          "name": "previousOwner",
          "type": "address"
        },
        {
          "indexed": true,
          "internalType": "address",
          "name": "newOwner",
          "type": "address"
        }
      ],
      "name": "OwnershipTransferred",
      "type": "event"
    },
    {
      "anonymous": false,
      "inputs": [
        {
          "indexed": false,
          "internalType": "bytes32",
          "name": "id",
          "type": "bytes32"
        },
        {
          "indexed": false,
          "internalType": "bool",
          "name": "isActive",
          "type": "bool"
        }
      ],
      "name": "SetInvestorAsset",
      "type": "event"
    },
    {
      "anonymous": false,
      "inputs": [
        {
          "indexed": true,
          "internalType": "bytes32",
          "name": "investorId",
          "type": "bytes32"
        },
        {
          "indexed": true,
          "internalType": "bytes32",
          "name": "assetId",
          "type": "bytes32"
        },
        {
          "indexed": false,
          "internalType": "uint256",
          "name": "tokenAmount",
          "type": "uint256"
        },
        {
          "indexed": false,
          "internalType": "uint256",
          "name": "assetAmount",
          "type": "uint256"
        }
      ],
      "name": "UserInvested",
      "type": "event"
    },
    {
      "anonymous": false,
      "inputs": [
        {
          "indexed": true,
          "internalType": "bytes32",
          "name": "investorId",
          "type": "bytes32"
        },
        {
          "indexed": true,
          "internalType": "bytes32",
          "name": "assetId",
          "type": "bytes32"
        },
        {
          "indexed": false,
          "internalType": "uint256",
          "name": "assetAmount",
          "type": "uint256"
        }
      ],
      "name": "UserWithdraw",
      "type": "event"
    },
    {
      "inputs": [],
      "name": "UNITS",
      "outputs": [
        {
          "internalType": "uint256",
          "name": "",
          "type": "uint256"
        }
      ],
      "stateMutability": "view",
      "type": "function"
    },
    {
      "inputs": [
        {
          "internalType": "bytes32",
          "name": "id",
          "type": "bytes32"
        },
        {
          "internalType": "string",
          "name": "name",
          "type": "string"
        },
        {
          "internalType": "uint256",
          "name": "chainId",
          "type": "uint256"
        },
        {
          "internalType": "address",
          "name": "investmentToken",
          "type": "address"
        },
        {
          "internalType": "address",
          "name": "assetToken",
          "type": "address"
        },
        {
          "internalType": "enum InvestorProfile.AssetCategory",
          "name": "category",
          "type": "uint8"
        }
      ],
      "name": "addAssetOption",
      "outputs": [],
      "stateMutability": "nonpayable",
      "type": "function"
    },
    {
      "inputs": [
        {
          "components": [
            {
              "internalType": "bytes32",
              "name": "investorId",
              "type": "bytes32"
            },
            {
              "internalType": "enum InvestorProfileParams.InvestorCategory",
              "name": "category",
              "type": "uint8"
            },
            {
              "internalType": "string",
              "name": "wallet",
              "type": "string"
            },
            {
              "internalType": "string",
              "name": "twitter",
              "type": "string"
            },
            {
              "internalType": "string",
              "name": "youtube",
              "type": "string"
            },
            {
              "internalType": "string",
              "name": "discord",
              "type": "string"
            },
            {
              "internalType": "string",
              "name": "telegram",
              "type": "string"
            }
          ],
          "internalType": "struct InvestorProfileParams.AddInvestorParams",
          "name": "params",
          "type": "tuple"
        }
      ],
      "name": "addInvestor",
      "outputs": [],
      "stateMutability": "nonpayable",
      "type": "function"
    },
    {
      "inputs": [
        {
          "internalType": "bytes32",
          "name": "investorId",
          "type": "bytes32"
        },
        {
          "internalType": "bytes32",
          "name": "assetId",
          "type": "bytes32"
        },
        {
          "internalType": "uint256",
          "name": "tokenAmount",
          "type": "uint256"
        },
        {
          "internalType": "uint256",
          "name": "assetAmount",
          "type": "uint256"
        }
      ],
      "name": "addUserInvestment",
      "outputs": [],
      "stateMutability": "nonpayable",
      "type": "function"
    },
    {
      "inputs": [
        {
          "internalType": "bytes32",
          "name": "",
          "type": "bytes32"
        }
      ],
      "name": "assets",
      "outputs": [
        {
          "internalType": "bytes32",
          "name": "id",
          "type": "bytes32"
        },
        {
          "internalType": "string",
          "name": "name",
          "type": "string"
        },
        {
          "internalType": "uint256",
          "name": "chainId",
          "type": "uint256"
        },
        {
          "internalType": "bool",
          "name": "isActive",
          "type": "bool"
        },
        {
          "internalType": "address",
          "name": "assetToken",
          "type": "address"
        },
        {
          "internalType": "address",
          "name": "investmentToken",
          "type": "address"
        },
        {
          "internalType": "enum InvestorProfile.AssetCategory",
          "name": "category",
          "type": "uint8"
        }
      ],
      "stateMutability": "view",
      "type": "function"
    },
    {
      "inputs": [
        {
          "internalType": "bytes32",
          "name": "investorId",
          "type": "bytes32"
        }
      ],
      "name": "getInvestor",
      "outputs": [
        {
          "components": [
            {
              "internalType": "bytes32",
              "name": "investorId",
              "type": "bytes32"
            },
            {
              "internalType": "enum InvestorProfileParams.Tier",
              "name": "otcOperator",
              "type": "uint8"
            },
            {
              "internalType": "enum InvestorProfileParams.Tier",
              "name": "signalSeeker",
              "type": "uint8"
            },
            {
              "internalType": "enum InvestorProfileParams.Tier",
              "name": "strategicSuit",
              "type": "uint8"
            },
            {
              "internalType": "enum InvestorProfileParams.Tier",
              "name": "nodeMaximalist",
              "type": "uint8"
            },
            {
              "internalType": "enum InvestorProfileParams.Tier",
              "name": "realworldRaider",
              "type": "uint8"
            },
            {
              "internalType": "enum InvestorProfileParams.Tier",
              "name": "launchpadLoyalist",
              "type": "uint8"
            },
            {
              "internalType": "enum InvestorProfileParams.InvestorCategory",
              "name": "category",
              "type": "uint8"
            }
          ],
          "internalType": "struct InvestorProfileParams.InvestorView",
          "name": "iview",
          "type": "tuple"
        }
      ],
      "stateMutability": "view",
      "type": "function"
    },
    {
      "inputs": [],
      "name": "owner",
      "outputs": [
        {
          "internalType": "address",
          "name": "",
          "type": "address"
        }
      ],
      "stateMutability": "view",
      "type": "function"
    },
    {
      "inputs": [],
      "name": "renounceOwnership",
      "outputs": [],
      "stateMutability": "nonpayable",
      "type": "function"
    },
    {
      "inputs": [
        {
          "internalType": "address",
          "name": "admin",
          "type": "address"
        },
        {
          "internalType": "bool",
          "name": "enable",
          "type": "bool"
        }
      ],
      "name": "setAdmin",
      "outputs": [],
      "stateMutability": "nonpayable",
      "type": "function"
    },
    {
      "inputs": [
        {
          "internalType": "bytes32",
          "name": "id",
          "type": "bytes32"
        },
        {
          "internalType": "bool",
          "name": "enable",
          "type": "bool"
        }
      ],
      "name": "setInvestmentOption",
      "outputs": [],
      "stateMutability": "nonpayable",
      "type": "function"
    },
    {
      "inputs": [
        {
          "internalType": "address",
          "name": "newOwner",
          "type": "address"
        }
      ],
      "name": "transferOwnership",
      "outputs": [],
      "stateMutability": "nonpayable",
      "type": "function"
    },
    {
      "inputs": [
        {
          "components": [
            {
              "internalType": "bytes32",
              "name": "investorId",
              "type": "bytes32"
            },
            {
              "internalType": "enum InvestorProfileParams.InvestorCategory",
              "name": "category",
              "type": "uint8"
            },
            {
              "internalType": "string",
              "name": "wallet",
              "type": "string"
            },
            {
              "internalType": "string",
              "name": "twitter",
              "type": "string"
            },
            {
              "internalType": "string",
              "name": "youtube",
              "type": "string"
            },
            {
              "internalType": "string",
              "name": "discord",
              "type": "string"
            },
            {
              "internalType": "string",
              "name": "telegram",
              "type": "string"
            }
          ],
          "internalType": "struct InvestorProfileParams.UpdateInvestorParams",
          "name": "params",
          "type": "tuple"
        }
      ],
      "name": "updateInvestorDetails",
      "outputs": [],
      "stateMutability": "nonpayable",
      "type": "function"
    },
    {
      "inputs": [
        {
          "internalType": "bytes32",
          "name": "investorId",
          "type": "bytes32"
        },
        {
          "internalType": "bytes32",
          "name": "assetId",
          "type": "bytes32"
        },
        {
          "internalType": "uint256",
          "name": "assetAmount",
          "type": "uint256"
        }
      ],
      "name": "withdrawUserInvestment",
      "outputs": [],
      "stateMutability": "nonpayable",
      "type": "function"
    }
  ],
  "transactionHash": "0xce08c18e08af3eb94fad681ebdc13ed9dcd2144e6fce6fe998f051a910fa9b5a",
  "args": [
    "0x55ecEb75176fA99d6108a4a1f83766701556867B"
  ],
  "numDeployments": 6,
  "solcInputHash": "6c347b06f5feb784eddcfa2193356c5b",
  "bytecode": "0x60806040523480156200001157600080fd5b506040516200340b3803806200340b8339818101604052810190620000379190620001f6565b8080600073ffffffffffffffffffffffffffffffffffffffff168173ffffffffffffffffffffffffffffffffffffffff1603620000ae5760006040517f1e4fbdf7000000000000000000000000000000000000000000000000000000008152600401620000a5919062000239565b60405180910390fd5b620000bf81620000c860201b60201c565b50505062000256565b60008060009054906101000a900473ffffffffffffffffffffffffffffffffffffffff169050816000806101000a81548173ffffffffffffffffffffffffffffffffffffffff021916908373ffffffffffffffffffffffffffffffffffffffff1602179055508173ffffffffffffffffffffffffffffffffffffffff168173ffffffffffffffffffffffffffffffffffffffff167f8be0079c531659141344cd1fd0a4f28419497f9722a3daafe3b4186f6b6457e060405160405180910390a35050565b600080fd5b600073ffffffffffffffffffffffffffffffffffffffff82169050919050565b6000620001be8262000191565b9050919050565b620001d081620001b1565b8114620001dc57600080fd5b50565b600081519050620001f081620001c5565b92915050565b6000602082840312156200020f576200020e6200018c565b5b60006200021f84828501620001df565b91505092915050565b6200023381620001b1565b82525050565b600060208201905062000250600083018462000228565b92915050565b6131a580620002666000396000f3fe608060405234801561001057600080fd5b50600436106100cf5760003560e01c806377fe143f1161008c5780639fda5b66116100665780639fda5b66146101c2578063a35fab2e146101f8578063abc1ed2d14610228578063f2fde38b14610244576100cf565b806377fe143f1461016a5780638d8e508a146101885780638da5cb5b146101a4576100cf565b8063171fb512146100d45780632d2a8788146100f057806343eb0ae51461010c5780634b0bddd214610128578063544a961314610144578063715018a614610160575b600080fd5b6100ee60048036038101906100e99190612187565b610260565b005b61010a60048036038101906101059190612230565b610679565b005b610126600480360381019061012191906123f2565b61099f565b005b610142600480360381019061013d9190612473565b610b22565b005b61015e600480360381019061015991906124b3565b610bd3565b005b610168610e84565b005b610172610e98565b60405161017f9190612502565b60405180910390f35b6101a2600480360381019061019d919061251d565b610e9f565b005b6101ac6113e0565b6040516101b99190612593565b60405180910390f35b6101dc60048036038101906101d791906125ae565b611409565b6040516101ef97969594939291906126ef565b60405180910390f35b610212600480360381019061020d91906125ae565b61152d565b60405161021f91906128a6565b60405180910390f35b610242600480360381019061023d9190612a02565b611a44565b005b61025e60048036038101906102599190612a4b565b611bc7565b005b610268611c4d565b6000600360008881526020019081526020016000206040518060e0016040529081600082015481526020016001820180546102a290612aa7565b80601f01602080910402602001604051908101604052809291908181526020018280546102ce90612aa7565b801561031b5780601f106102f05761010080835404028352916020019161031b565b820191906000526020600020905b8154815290600101906020018083116102fe57829003601f168201915b50505050508152602001600282015481526020016003820160009054906101000a900460ff161515151581526020016003820160019054906101000a900473ffffffffffffffffffffffffffffffffffffffff1673ffffffffffffffffffffffffffffffffffffffff1673ffffffffffffffffffffffffffffffffffffffff1681526020016004820160009054906101000a900473ffffffffffffffffffffffffffffffffffffffff1673ffffffffffffffffffffffffffffffffffffffff1673ffffffffffffffffffffffffffffffffffffffff1681526020016004820160149054906101000a900460ff16600581111561041a57610419612678565b5b600581111561042c5761042b612678565b5b815250509050600073ffffffffffffffffffffffffffffffffffffffff168160a0015173ffffffffffffffffffffffffffffffffffffffff16146104a5576040517f08c379a000000000000000000000000000000000000000000000000000000000815260040161049c90612b24565b60405180910390fd5b6040518060e001604052808881526020018781526020018681526020016001151581526020018473ffffffffffffffffffffffffffffffffffffffff1681526020018573ffffffffffffffffffffffffffffffffffffffff16815260200183600581111561051657610515612678565b5b8152506003600089815260200190815260200160002060008201518160000155602082015181600101908161054b9190612cf0565b506040820151816002015560608201518160030160006101000a81548160ff02191690831515021790555060808201518160030160016101000a81548173ffffffffffffffffffffffffffffffffffffffff021916908373ffffffffffffffffffffffffffffffffffffffff16021790555060a08201518160040160006101000a81548173ffffffffffffffffffffffffffffffffffffffff021916908373ffffffffffffffffffffffffffffffffffffffff16021790555060c08201518160040160146101000a81548160ff0219169083600581111561062f5761062e612678565b5b02179055509050507f16e326671af52e8aa72f69e003dc3359c6d5fdcfad013195980f8eeab5493c608787604051610668929190612dc2565b60405180910390a150505050505050565b610681611cd4565b6000600360008481526020019081526020016000206040518060e0016040529081600082015481526020016001820180546106bb90612aa7565b80601f01602080910402602001604051908101604052809291908181526020018280546106e790612aa7565b80156107345780601f1061070957610100808354040283529160200191610734565b820191906000526020600020905b81548152906001019060200180831161071757829003601f168201915b50505050508152602001600282015481526020016003820160009054906101000a900460ff161515151581526020016003820160019054906101000a900473ffffffffffffffffffffffffffffffffffffffff1673ffffffffffffffffffffffffffffffffffffffff1673ffffffffffffffffffffffffffffffffffffffff1681526020016004820160009054906101000a900473ffffffffffffffffffffffffffffffffffffffff1673ffffffffffffffffffffffffffffffffffffffff1673ffffffffffffffffffffffffffffffffffffffff1681526020016004820160149054906101000a900460ff16600581111561083357610832612678565b5b600581111561084557610844612678565b5b815250509050600073ffffffffffffffffffffffffffffffffffffffff168160a0015173ffffffffffffffffffffffffffffffffffffffff16036108be576040517f08c379a00000000000000000000000000000000000000000000000000000000081526004016108b590612e3e565b60405180910390fd5b60006002600086815260200190815260200160002090508281600f016000868152602001908152602001600020600101541015610930576040517f08c379a000000000000000000000000000000000000000000000000000000000815260040161092790612eaa565b60405180910390fd5b8281600f01600086815260200190815260200160002060010160008282546109589190612ef9565b9250508190555083857fa25c50ade3cd04a651105e7cc70b099f0d4e30f165a387f7120d7a1e83b0d89e856040516109909190612502565b60405180910390a35050505050565b6109a7611cd4565b6000801b60026000836000015181526020019081526020016000206000015414610a06576040517f08c379a00000000000000000000000000000000000000000000000000000000081526004016109fd90612f79565b60405180910390fd5b6000600260008360000151815260200190815260200160002090508160000151816000018190555081602001518160010160006101000a81548160ff02191690836003811115610a5957610a58612678565b5b0217905550816040015181600a019081610a739190612cf0565b50816060015181600b019081610a899190612cf0565b50816080015181600c019081610a9f9190612cf0565b508160a0015181600d019081610ab59190612cf0565b508160c0015181600e019081610acb9190612cf0565b5081602001516003811115610ae357610ae2612678565b5b7fad7bdab74417facd46f51a883dad12566dfc0cc6ca4427678cae2ddf3dcba8a48360000151604051610b169190612f99565b60405180910390a25050565b610b2a611c4d565b80600160008473ffffffffffffffffffffffffffffffffffffffff1673ffffffffffffffffffffffffffffffffffffffff16815260200190815260200160002060006101000a81548160ff0219169083151502179055508173ffffffffffffffffffffffffffffffffffffffff167fe68d2c359a771606c400cf8b87000cf5864010363d6a736e98f5047b7bbe18e982604051610bc79190612fb4565b60405180910390a25050565b610bdb611c4d565b6000600360008481526020019081526020016000206040518060e001604052908160008201548152602001600182018054610c1590612aa7565b80601f0160208091040260200160405190810160405280929190818152602001828054610c4190612aa7565b8015610c8e5780601f10610c6357610100808354040283529160200191610c8e565b820191906000526020600020905b815481529060010190602001808311610c7157829003601f168201915b50505050508152602001600282015481526020016003820160009054906101000a900460ff161515151581526020016003820160019054906101000a900473ffffffffffffffffffffffffffffffffffffffff1673ffffffffffffffffffffffffffffffffffffffff1673ffffffffffffffffffffffffffffffffffffffff1681526020016004820160009054906101000a900473ffffffffffffffffffffffffffffffffffffffff1673ffffffffffffffffffffffffffffffffffffffff1673ffffffffffffffffffffffffffffffffffffffff1681526020016004820160149054906101000a900460ff166005811115610d8d57610d8c612678565b5b6005811115610d9f57610d9e612678565b5b815250509050600073ffffffffffffffffffffffffffffffffffffffff168160a0015173ffffffffffffffffffffffffffffffffffffffff1603610e18576040517f08c379a0000000000000000000000000000000000000000000000000000000008152600401610e0f9061301b565b60405180910390fd5b816003600085815260200190815260200160002060030160006101000a81548160ff0219169083151502179055507f6316e9e8f37c7ac21fa13914f9a9f3d09b95e5fa2f4fa40ab91f4721912c6e678383604051610e7792919061303b565b60405180910390a1505050565b610e8c611c4d565b610e966000611dac565b565b620f424081565b610ea7611cd4565b6000600360008581526020019081526020016000206040518060e001604052908160008201548152602001600182018054610ee190612aa7565b80601f0160208091040260200160405190810160405280929190818152602001828054610f0d90612aa7565b8015610f5a5780601f10610f2f57610100808354040283529160200191610f5a565b820191906000526020600020905b815481529060010190602001808311610f3d57829003601f168201915b50505050508152602001600282015481526020016003820160009054906101000a900460ff161515151581526020016003820160019054906101000a900473ffffffffffffffffffffffffffffffffffffffff1673ffffffffffffffffffffffffffffffffffffffff1673ffffffffffffffffffffffffffffffffffffffff1681526020016004820160009054906101000a900473ffffffffffffffffffffffffffffffffffffffff1673ffffffffffffffffffffffffffffffffffffffff1673ffffffffffffffffffffffffffffffffffffffff1681526020016004820160149054906101000a900460ff16600581111561105957611058612678565b5b600581111561106b5761106a612678565b5b815250509050600073ffffffffffffffffffffffffffffffffffffffff168160a0015173ffffffffffffffffffffffffffffffffffffffff16036110e4576040517f08c379a00000000000000000000000000000000000000000000000000000000081526004016110db90612e3e565b60405180910390fd5b60006002600087815260200190815260200160002090506000801b816000015403611144576040517f08c379a000000000000000000000000000000000000000000000000000000000815260040161113b90612f79565b60405180910390fd5b8381600f016000878152602001908152602001600020600001600082825461116c9190613064565b925050819055508281600f016000878152602001908152602001600020600101600082825461119b9190613064565b92505081905550600360058111156111b6576111b5612678565b5b8260c0015160058111156111cd576111cc612678565b5b036111f257838160060160008282546111e69190613064565b92505081905550611382565b6000600581111561120657611205612678565b5b8260c00151600581111561121d5761121c612678565b5b0361124257838160040160008282546112369190613064565b92505081905550611381565b6004600581111561125657611255612678565b5b8260c00151600581111561126d5761126c612678565b5b0361129257838160080160008282546112869190613064565b92505081905550611380565b600260058111156112a6576112a5612678565b5b8260c0015160058111156112bd576112bc612678565b5b036112e257838160020160008282546112d69190613064565b9250508190555061137f565b600160058111156112f6576112f5612678565b5b8260c00151600581111561130d5761130c612678565b5b0361133257838160050160008282546113269190613064565b9250508190555061137e565b60058081111561134557611344612678565b5b8260c00151600581111561135c5761135b612678565b5b0361137d57838160090160008282546113759190613064565b925050819055505b5b5b5b5b5b838160030160008282546113969190613064565b9250508190555084867fee40770bb62dbe8676b49925339cc79342693609b6c807b2fc8bea82e87e285186866040516113d0929190613098565b60405180910390a3505050505050565b60008060009054906101000a900473ffffffffffffffffffffffffffffffffffffffff16905090565b600360205280600052604060002060009150905080600001549080600101805461143290612aa7565b80601f016020809104026020016040519081016040528092919081815260200182805461145e90612aa7565b80156114ab5780601f10611480576101008083540402835291602001916114ab565b820191906000526020600020905b81548152906001019060200180831161148e57829003601f168201915b5050505050908060020154908060030160009054906101000a900460ff16908060030160019054906101000a900473ffffffffffffffffffffffffffffffffffffffff16908060040160009054906101000a900473ffffffffffffffffffffffffffffffffffffffff16908060040160149054906101000a900460ff16905087565b611535611e78565b60006002600084815260200190815260200160002090506000801b816000015403611595576040517f08c379a000000000000000000000000000000000000000000000000000000000815260040161158c90612f79565b60405180910390fd5b8060010160009054906101000a900460ff168260e0019060038111156115be576115bd612678565b5b908160038111156115d2576115d1612678565b5b8152505080600001548260000181815250506000826040019060028111156115fd576115fc612678565b5b9081600281111561161157611610612678565b5b81525050620f424061271061162691906130c1565b8160020154106116665760028260200190600281111561164957611648612678565b5b9081600281111561165d5761165c612678565b5b815250506116ea565b620f42406103e861167791906130c1565b8160020154106116b75760018260200190600281111561169a57611699612678565b5b908160028111156116ae576116ad612678565b5b815250506116e9565b6000826020019060028111156116d0576116cf612678565b5b908160028111156116e4576116e3612678565b5b815250505b5b620f42406127106116fb91906130c1565b81600901541061173b5760028260a00190600281111561171e5761171d612678565b5b9081600281111561173257611731612678565b5b815250506117bf565b620f42406103e861174c91906130c1565b81600901541061178c5760018260a00190600281111561176f5761176e612678565b5b9081600281111561178357611782612678565b5b815250506117be565b60008260a0019060028111156117a5576117a4612678565b5b908160028111156117b9576117b8612678565b5b815250505b5b620f42406127106117d091906130c1565b816006015410611810576002826080019060028111156117f3576117f2612678565b5b9081600281111561180757611806612678565b5b81525050611894565b620f42406103e861182191906130c1565b8160060154106118615760018260800190600281111561184457611843612678565b5b9081600281111561185857611857612678565b5b81525050611893565b60008260800190600281111561187a57611879612678565b5b9081600281111561188e5761188d612678565b5b815250505b5b620f42406161a86118a591906130c1565b8160040154106118e5576002826060019060028111156118c8576118c7612678565b5b908160028111156118dc576118db612678565b5b81525050611969565b620f42406113886118f691906130c1565b8160040154106119365760018260600190600281111561191957611918612678565b5b9081600281111561192d5761192c612678565b5b81525050611968565b60008260600190600281111561194f5761194e612678565b5b9081600281111561196357611962612678565b5b815250505b5b620f424061271061197a91906130c1565b8160080154106119ba5760028260c00190600281111561199d5761199c612678565b5b908160028111156119b1576119b0612678565b5b81525050611a3e565b620f42406103e86119cb91906130c1565b816008015410611a0b5760018260c0019060028111156119ee576119ed612678565b5b90816002811115611a0257611a01612678565b5b81525050611a3d565b60008260c001906002811115611a2457611a23612678565b5b90816002811115611a3857611a37612678565b5b815250505b5b50919050565b611a4c611cd4565b6000801b60026000836000015181526020019081526020016000206000015403611aab576040517f08c379a0000000000000000000000000000000000000000000000000000000008152600401611aa290612f79565b60405180910390fd5b6000600260008360000151815260200190815260200160002090508160000151816000018190555081602001518160010160006101000a81548160ff02191690836003811115611afe57611afd612678565b5b0217905550816040015181600a019081611b189190612cf0565b50816060015181600b019081611b2e9190612cf0565b50816080015181600c019081611b449190612cf0565b508160a0015181600d019081611b5a9190612cf0565b508160c0015181600e019081611b709190612cf0565b5081602001516003811115611b8857611b87612678565b5b7ff0ff59a3f7b588fd7ca29c3c5bf151a3413292c4b02f49c04037368ca1d42c7f8360000151604051611bbb9190612f99565b60405180910390a25050565b611bcf611c4d565b600073ffffffffffffffffffffffffffffffffffffffff168173ffffffffffffffffffffffffffffffffffffffff1603611c415760006040517f1e4fbdf7000000000000000000000000000000000000000000000000000000008152600401611c389190612593565b60405180910390fd5b611c4a81611dac565b50565b611c55611e70565b73ffffffffffffffffffffffffffffffffffffffff16611c736113e0565b73ffffffffffffffffffffffffffffffffffffffff1614611cd257611c96611e70565b6040517f118cdaa7000000000000000000000000000000000000000000000000000000008152600401611cc99190612593565b60405180910390fd5b565b6000611cde611e70565b9050600160008273ffffffffffffffffffffffffffffffffffffffff1673ffffffffffffffffffffffffffffffffffffffff16815260200190815260200160002060009054906101000a900460ff1680611d6a57508073ffffffffffffffffffffffffffffffffffffffff16611d526113e0565b73ffffffffffffffffffffffffffffffffffffffff16145b611da9576040517f08c379a0000000000000000000000000000000000000000000000000000000008152600401611da09061314f565b60405180910390fd5b50565b60008060009054906101000a900473ffffffffffffffffffffffffffffffffffffffff169050816000806101000a81548173ffffffffffffffffffffffffffffffffffffffff021916908373ffffffffffffffffffffffffffffffffffffffff1602179055508173ffffffffffffffffffffffffffffffffffffffff168173ffffffffffffffffffffffffffffffffffffffff167f8be0079c531659141344cd1fd0a4f28419497f9722a3daafe3b4186f6b6457e060405160405180910390a35050565b600033905090565b6040518061010001604052806000801916815260200160006002811115611ea257611ea1612678565b5b815260200160006002811115611ebb57611eba612678565b5b815260200160006002811115611ed457611ed3612678565b5b815260200160006002811115611eed57611eec612678565b5b815260200160006002811115611f0657611f05612678565b5b815260200160006002811115611f1f57611f1e612678565b5b815260200160006003811115611f3857611f37612678565b5b81525090565b6000604051905090565b600080fd5b600080fd5b6000819050919050565b611f6581611f52565b8114611f7057600080fd5b50565b600081359050611f8281611f5c565b92915050565b600080fd5b600080fd5b6000601f19601f8301169050919050565b7f4e487b7100000000000000000000000000000000000000000000000000000000600052604160045260246000fd5b611fdb82611f92565b810181811067ffffffffffffffff82111715611ffa57611ff9611fa3565b5b80604052505050565b600061200d611f3e565b90506120198282611fd2565b919050565b600067ffffffffffffffff82111561203957612038611fa3565b5b61204282611f92565b9050602081019050919050565b82818337600083830152505050565b600061207161206c8461201e565b612003565b90508281526020810184848401111561208d5761208c611f8d565b5b61209884828561204f565b509392505050565b600082601f8301126120b5576120b4611f88565b5b81356120c584826020860161205e565b91505092915050565b6000819050919050565b6120e1816120ce565b81146120ec57600080fd5b50565b6000813590506120fe816120d8565b92915050565b600073ffffffffffffffffffffffffffffffffffffffff82169050919050565b600061212f82612104565b9050919050565b61213f81612124565b811461214a57600080fd5b50565b60008135905061215c81612136565b92915050565b6006811061216f57600080fd5b50565b60008135905061218181612162565b92915050565b60008060008060008060c087890312156121a4576121a3611f48565b5b60006121b289828a01611f73565b965050602087013567ffffffffffffffff8111156121d3576121d2611f4d565b5b6121df89828a016120a0565b95505060406121f089828a016120ef565b945050606061220189828a0161214d565b935050608061221289828a0161214d565b92505060a061222389828a01612172565b9150509295509295509295565b60008060006060848603121561224957612248611f48565b5b600061225786828701611f73565b935050602061226886828701611f73565b9250506040612279868287016120ef565b9150509250925092565b600080fd5b600080fd5b6004811061229a57600080fd5b50565b6000813590506122ac8161228d565b92915050565b600060e082840312156122c8576122c7612283565b5b6122d260e0612003565b905060006122e284828501611f73565b60008301525060206122f68482850161229d565b602083015250604082013567ffffffffffffffff81111561231a57612319612288565b5b612326848285016120a0565b604083015250606082013567ffffffffffffffff81111561234a57612349612288565b5b612356848285016120a0565b606083015250608082013567ffffffffffffffff81111561237a57612379612288565b5b612386848285016120a0565b60808301525060a082013567ffffffffffffffff8111156123aa576123a9612288565b5b6123b6848285016120a0565b60a08301525060c082013567ffffffffffffffff8111156123da576123d9612288565b5b6123e6848285016120a0565b60c08301525092915050565b60006020828403121561240857612407611f48565b5b600082013567ffffffffffffffff81111561242657612425611f4d565b5b612432848285016122b2565b91505092915050565b60008115159050919050565b6124508161243b565b811461245b57600080fd5b50565b60008135905061246d81612447565b92915050565b6000806040838503121561248a57612489611f48565b5b60006124988582860161214d565b92505060206124a98582860161245e565b9150509250929050565b600080604083850312156124ca576124c9611f48565b5b60006124d885828601611f73565b92505060206124e98582860161245e565b9150509250929050565b6124fc816120ce565b82525050565b600060208201905061251760008301846124f3565b92915050565b6000806000806080858703121561253757612536611f48565b5b600061254587828801611f73565b945050602061255687828801611f73565b9350506040612567878288016120ef565b9250506060612578878288016120ef565b91505092959194509250565b61258d81612124565b82525050565b60006020820190506125a86000830184612584565b92915050565b6000602082840312156125c4576125c3611f48565b5b60006125d284828501611f73565b91505092915050565b6125e481611f52565b82525050565b600081519050919050565b600082825260208201905092915050565b60005b83811015612624578082015181840152602081019050612609565b60008484015250505050565b600061263b826125ea565b61264581856125f5565b9350612655818560208601612606565b61265e81611f92565b840191505092915050565b6126728161243b565b82525050565b7f4e487b7100000000000000000000000000000000000000000000000000000000600052602160045260246000fd5b600681106126b8576126b7612678565b5b50565b60008190506126c9826126a7565b919050565b60006126d9826126bb565b9050919050565b6126e9816126ce565b82525050565b600060e082019050612704600083018a6125db565b81810360208301526127168189612630565b905061272560408301886124f3565b6127326060830187612669565b61273f6080830186612584565b61274c60a0830185612584565b61275960c08301846126e0565b98975050505050505050565b61276e81611f52565b82525050565b6003811061278557612784612678565b5b50565b600081905061279682612774565b919050565b60006127a682612788565b9050919050565b6127b68161279b565b82525050565b600481106127cd576127cc612678565b5b50565b60008190506127de826127bc565b919050565b60006127ee826127d0565b9050919050565b6127fe816127e3565b82525050565b6101008201600082015161281b6000850182612765565b50602082015161282e60208501826127ad565b50604082015161284160408501826127ad565b50606082015161285460608501826127ad565b50608082015161286760808501826127ad565b5060a082015161287a60a08501826127ad565b5060c082015161288d60c08501826127ad565b5060e08201516128a060e08501826127f5565b50505050565b6000610100820190506128bc6000830184612804565b92915050565b600060e082840312156128d8576128d7612283565b5b6128e260e0612003565b905060006128f284828501611f73565b60008301525060206129068482850161229d565b602083015250604082013567ffffffffffffffff81111561292a57612929612288565b5b612936848285016120a0565b604083015250606082013567ffffffffffffffff81111561295a57612959612288565b5b612966848285016120a0565b606083015250608082013567ffffffffffffffff81111561298a57612989612288565b5b612996848285016120a0565b60808301525060a082013567ffffffffffffffff8111156129ba576129b9612288565b5b6129c6848285016120a0565b60a08301525060c082013567ffffffffffffffff8111156129ea576129e9612288565b5b6129f6848285016120a0565b60c08301525092915050565b600060208284031215612a1857612a17611f48565b5b600082013567ffffffffffffffff811115612a3657612a35611f4d565b5b612a42848285016128c2565b91505092915050565b600060208284031215612a6157612a60611f48565b5b6000612a6f8482850161214d565b91505092915050565b7f4e487b7100000000000000000000000000000000000000000000000000000000600052602260045260246000fd5b60006002820490506001821680612abf57607f821691505b602082108103612ad257612ad1612a78565b5b50919050565b7f496420616c72656164792074616b656e00000000000000000000000000000000600082015250565b6000612b0e6010836125f5565b9150612b1982612ad8565b602082019050919050565b60006020820190508181036000830152612b3d81612b01565b9050919050565b60008190508160005260206000209050919050565b60006020601f8301049050919050565b600082821b905092915050565b600060088302612ba67fffffffffffffffffffffffffffffffffffffffffffffffffffffffffffffffff82612b69565b612bb08683612b69565b95508019841693508086168417925050509392505050565b6000819050919050565b6000612bed612be8612be3846120ce565b612bc8565b6120ce565b9050919050565b6000819050919050565b612c0783612bd2565b612c1b612c1382612bf4565b848454612b76565b825550505050565b600090565b612c30612c23565b612c3b818484612bfe565b505050565b5b81811015612c5f57612c54600082612c28565b600181019050612c41565b5050565b601f821115612ca457612c7581612b44565b612c7e84612b59565b81016020851015612c8d578190505b612ca1612c9985612b59565b830182612c40565b50505b505050565b600082821c905092915050565b6000612cc760001984600802612ca9565b1980831691505092915050565b6000612ce08383612cb6565b9150826002028217905092915050565b612cf9826125ea565b67ffffffffffffffff811115612d1257612d11611fa3565b5b612d1c8254612aa7565b612d27828285612c63565b600060209050601f831160018114612d5a5760008415612d48578287015190505b612d528582612cd4565b865550612dba565b601f198416612d6886612b44565b60005b82811015612d9057848901518255600182019150602085019450602081019050612d6b565b86831015612dad5784890151612da9601f891682612cb6565b8355505b6001600288020188555050505b505050505050565b6000604082019050612dd760008301856125db565b8181036020830152612de98184612630565b90509392505050565b7f496e76616c696420617373657420696400000000000000000000000000000000600082015250565b6000612e286010836125f5565b9150612e3382612df2565b602082019050919050565b60006020820190508181036000830152612e5781612e1b565b9050919050565b7f496e76616c696420776974686472617720616d6f756e74000000000000000000600082015250565b6000612e946017836125f5565b9150612e9f82612e5e565b602082019050919050565b60006020820190508181036000830152612ec381612e87565b9050919050565b7f4e487b7100000000000000000000000000000000000000000000000000000000600052601160045260246000fd5b6000612f04826120ce565b9150612f0f836120ce565b9250828203905081811115612f2757612f26612eca565b5b92915050565b7f696e76616c696420696e766573746f7220696400000000000000000000000000600082015250565b6000612f636013836125f5565b9150612f6e82612f2d565b602082019050919050565b60006020820190508181036000830152612f9281612f56565b9050919050565b6000602082019050612fae60008301846125db565b92915050565b6000602082019050612fc96000830184612669565b92915050565b7f496e76616c696420696400000000000000000000000000000000000000000000600082015250565b6000613005600a836125f5565b915061301082612fcf565b602082019050919050565b6000602082019050818103600083015261303481612ff8565b9050919050565b600060408201905061305060008301856125db565b61305d6020830184612669565b9392505050565b600061306f826120ce565b915061307a836120ce565b925082820190508082111561309257613091612eca565b5b92915050565b60006040820190506130ad60008301856124f3565b6130ba60208301846124f3565b9392505050565b60006130cc826120ce565b91506130d7836120ce565b92508282026130e5816120ce565b915082820484148315176130fc576130fb612eca565b5b5092915050565b7f526f6c65733a204e6f7420616c6c6f7765640000000000000000000000000000600082015250565b60006131396012836125f5565b915061314482613103565b602082019050919050565b600060208201905081810360008301526131688161312c565b905091905056fea26469706673582212207448139aaba53476521a7b4474ff7d173d106294c724f95e1cd94824558d214464736f6c63430008140033",
  "devdoc": {
    "errors": {
      "OwnableInvalidOwner(address)": [
        {
          "details": "The owner is not a valid owner account. (eg. `address(0)`)"
        }
      ],
      "OwnableUnauthorizedAccount(address)": [
        {
          "details": "The caller account is not authorized to perform an operation."
        }
      ]
    },
    "kind": "dev",
    "methods": {
      "owner()": {
        "details": "Returns the address of the current owner."
      },
      "renounceOwnership()": {
        "details": "Leaves the contract without owner. It will not be possible to call `onlyOwner` functions. Can only be called by the current owner. NOTE: Renouncing ownership will leave the contract without an owner, thereby disabling any functionality that is only available to the owner."
      },
      "transferOwnership(address)": {
        "details": "Transfers ownership of the contract to a new account (`newOwner`). Can only be called by the current owner."
      }
    },
    "version": 1
  },
  "userdoc": {
    "kind": "user",
    "methods": {},
    "version": 1
  },
  "storageLayout": {
    "storage": [
      {
        "astId": 8,
        "contract": "contracts/InvestorProfile.sol:InvestorProfile",
        "label": "_owner",
        "offset": 0,
        "slot": "0",
        "type": "t_address"
      },
      {
        "astId": 1133,
        "contract": "contracts/InvestorProfile.sol:InvestorProfile",
        "label": "admins",
        "offset": 0,
        "slot": "1",
        "type": "t_mapping(t_address,t_bool)"
      },
      {
        "astId": 311,
        "contract": "contracts/InvestorProfile.sol:InvestorProfile",
        "label": "investors",
        "offset": 0,
        "slot": "2",
        "type": "t_mapping(t_bytes32,t_struct(Investor)262_storage)"
      },
      {
        "astId": 316,
        "contract": "contracts/InvestorProfile.sol:InvestorProfile",
        "label": "assets",
        "offset": 0,
        "slot": "3",
        "type": "t_mapping(t_bytes32,t_struct(Asset)225_storage)"
      }
    ],
    "types": {
      "t_address": {
        "encoding": "inplace",
        "label": "address",
        "numberOfBytes": "20"
      },
      "t_bool": {
        "encoding": "inplace",
        "label": "bool",
        "numberOfBytes": "1"
      },
      "t_bytes32": {
        "encoding": "inplace",
        "label": "bytes32",
        "numberOfBytes": "32"
      },
      "t_enum(AssetCategory)204": {
        "encoding": "inplace",
        "label": "enum InvestorProfile.AssetCategory",
        "numberOfBytes": "1"
      },
      "t_enum(InvestorCategory)1054": {
        "encoding": "inplace",
        "label": "enum InvestorProfileParams.InvestorCategory",
        "numberOfBytes": "1"
      },
      "t_mapping(t_address,t_bool)": {
        "encoding": "mapping",
        "key": "t_address",
        "label": "mapping(address => bool)",
        "numberOfBytes": "32",
        "value": "t_bool"
      },
      "t_mapping(t_bytes32,t_struct(Asset)225_storage)": {
        "encoding": "mapping",
        "key": "t_bytes32",
        "label": "mapping(bytes32 => struct InvestorProfile.Asset)",
        "numberOfBytes": "32",
        "value": "t_struct(Asset)225_storage"
      },
      "t_mapping(t_bytes32,t_struct(Investment)209_storage)": {
        "encoding": "mapping",
        "key": "t_bytes32",
        "label": "mapping(bytes32 => struct InvestorProfile.Investment)",
        "numberOfBytes": "32",
        "value": "t_struct(Investment)209_storage"
      },
      "t_mapping(t_bytes32,t_struct(Investor)262_storage)": {
        "encoding": "mapping",
        "key": "t_bytes32",
        "label": "mapping(bytes32 => struct InvestorProfile.Investor)",
        "numberOfBytes": "32",
        "value": "t_struct(Investor)262_storage"
      },
      "t_string_storage": {
        "encoding": "bytes",
        "label": "string",
        "numberOfBytes": "32"
      },
      "t_struct(Asset)225_storage": {
        "encoding": "inplace",
        "label": "struct InvestorProfile.Asset",
        "members": [
          {
            "astId": 211,
            "contract": "contracts/InvestorProfile.sol:InvestorProfile",
            "label": "id",
            "offset": 0,
            "slot": "0",
            "type": "t_bytes32"
          },
          {
            "astId": 213,
            "contract": "contracts/InvestorProfile.sol:InvestorProfile",
            "label": "name",
            "offset": 0,
            "slot": "1",
            "type": "t_string_storage"
          },
          {
            "astId": 215,
            "contract": "contracts/InvestorProfile.sol:InvestorProfile",
            "label": "chainId",
            "offset": 0,
            "slot": "2",
            "type": "t_uint256"
          },
          {
            "astId": 217,
            "contract": "contracts/InvestorProfile.sol:InvestorProfile",
            "label": "isActive",
            "offset": 0,
            "slot": "3",
            "type": "t_bool"
          },
          {
            "astId": 219,
            "contract": "contracts/InvestorProfile.sol:InvestorProfile",
            "label": "assetToken",
            "offset": 1,
            "slot": "3",
            "type": "t_address"
          },
          {
            "astId": 221,
            "contract": "contracts/InvestorProfile.sol:InvestorProfile",
            "label": "investmentToken",
            "offset": 0,
            "slot": "4",
            "type": "t_address"
          },
          {
            "astId": 224,
            "contract": "contracts/InvestorProfile.sol:InvestorProfile",
            "label": "category",
            "offset": 20,
            "slot": "4",
            "type": "t_enum(AssetCategory)204"
          }
        ],
        "numberOfBytes": "160"
      },
      "t_struct(Investment)209_storage": {
        "encoding": "inplace",
        "label": "struct InvestorProfile.Investment",
        "members": [
          {
            "astId": 206,
            "contract": "contracts/InvestorProfile.sol:InvestorProfile",
            "label": "investmentAmount",
            "offset": 0,
            "slot": "0",
            "type": "t_uint256"
          },
          {
            "astId": 208,
            "contract": "contracts/InvestorProfile.sol:InvestorProfile",
            "label": "assetAmount",
            "offset": 0,
            "slot": "1",
            "type": "t_uint256"
          }
        ],
        "numberOfBytes": "64"
      },
      "t_struct(Investor)262_storage": {
        "encoding": "inplace",
        "label": "struct InvestorProfile.Investor",
        "members": [
          {
            "astId": 227,
            "contract": "contracts/InvestorProfile.sol:InvestorProfile",
            "label": "investorId",
            "offset": 0,
            "slot": "0",
            "type": "t_bytes32"
          },
          {
            "astId": 230,
            "contract": "contracts/InvestorProfile.sol:InvestorProfile",
            "label": "category",
            "offset": 0,
            "slot": "1",
            "type": "t_enum(InvestorCategory)1054"
          },
          {
            "astId": 232,
            "contract": "contracts/InvestorProfile.sol:InvestorProfile",
            "label": "otcInvestment",
            "offset": 0,
            "slot": "2",
            "type": "t_uint256"
          },
          {
            "astId": 234,
            "contract": "contracts/InvestorProfile.sol:InvestorProfile",
            "label": "totalInvestment",
            "offset": 0,
            "slot": "3",
            "type": "t_uint256"
          },
          {
            "astId": 236,
            "contract": "contracts/InvestorProfile.sol:InvestorProfile",
            "label": "vcSaleInvestment",
            "offset": 0,
            "slot": "4",
            "type": "t_uint256"
          },
          {
            "astId": 238,
            "contract": "contracts/InvestorProfile.sol:InvestorProfile",
            "label": "signalsInvestment",
            "offset": 0,
            "slot": "5",
            "type": "t_uint256"
          },
          {
            "astId": 240,
            "contract": "contracts/InvestorProfile.sol:InvestorProfile",
            "label": "nodeSaleInvestment",
            "offset": 0,
            "slot": "6",
            "type": "t_uint256"
          },
          {
            "astId": 242,
            "contract": "contracts/InvestorProfile.sol:InvestorProfile",
            "label": "launchpadInvestment",
            "offset": 0,
            "slot": "7",
            "type": "t_uint256"
          },
          {
            "astId": 244,
            "contract": "contracts/InvestorProfile.sol:InvestorProfile",
            "label": "publicSaleInvestment",
            "offset": 0,
            "slot": "8",
            "type": "t_uint256"
          },
          {
            "astId": 246,
            "contract": "contracts/InvestorProfile.sol:InvestorProfile",
            "label": "yieldAggregatorInvestment",
            "offset": 0,
            "slot": "9",
            "type": "t_uint256"
          },
          {
            "astId": 248,
            "contract": "contracts/InvestorProfile.sol:InvestorProfile",
            "label": "wallet",
            "offset": 0,
            "slot": "10",
            "type": "t_string_storage"
          },
          {
            "astId": 250,
            "contract": "contracts/InvestorProfile.sol:InvestorProfile",
            "label": "twitter",
            "offset": 0,
            "slot": "11",
            "type": "t_string_storage"
          },
          {
            "astId": 252,
            "contract": "contracts/InvestorProfile.sol:InvestorProfile",
            "label": "youtube",
            "offset": 0,
            "slot": "12",
            "type": "t_string_storage"
          },
          {
            "astId": 254,
            "contract": "contracts/InvestorProfile.sol:InvestorProfile",
            "label": "discord",
            "offset": 0,
            "slot": "13",
            "type": "t_string_storage"
          },
          {
            "astId": 256,
            "contract": "contracts/InvestorProfile.sol:InvestorProfile",
            "label": "telegram",
            "offset": 0,
            "slot": "14",
            "type": "t_string_storage"
          },
          {
            "astId": 261,
            "contract": "contracts/InvestorProfile.sol:InvestorProfile",
            "label": "investments",
            "offset": 0,
            "slot": "15",
            "type": "t_mapping(t_bytes32,t_struct(Investment)209_storage)"
          }
        ],
        "numberOfBytes": "512"
      },
      "t_uint256": {
        "encoding": "inplace",
        "label": "uint256",
        "numberOfBytes": "32"
      }
    }
  }
}