{
  "address": "0xD332d685D72fcDDAF1031FE68Bbea52abF0d4C25",
  "abi": [
    {
      "inputs": [
        {
          "internalType": "address",
          "name": "owner",
          "type": "address"
        }
      ],
      "name": "OwnableInvalidOwner",
      "type": "error"
    },
    {
      "inputs": [
        {
          "internalType": "address",
          "name": "account",
          "type": "address"
        }
      ],
      "name": "OwnableUnauthorizedAccount",
      "type": "error"
    },
    {
      "anonymous": false,
      "inputs": [
        {
          "indexed": true,
          "internalType": "address",
          "name": "admin",
          "type": "address"
        },
        {
          "indexed": false,
          "internalType": "bool",
          "name": "enable",
          "type": "bool"
        }
      ],
      "name": "AdminSet",
      "type": "event"
    },
    {
      "anonymous": false,
      "inputs": [
        {
          "indexed": false,
          "internalType": "bytes32",
          "name": "investorId",
          "type": "bytes32"
        },
        {
          "indexed": true,
          "internalType": "enum InvestorProfile.InvestorCategory",
          "name": "category",
          "type": "uint8"
        }
      ],
      "name": "InvestorAdded",
      "type": "event"
    },
    {
      "anonymous": false,
      "inputs": [
        {
          "indexed": false,
          "internalType": "bytes32",
          "name": "id",
          "type": "bytes32"
        },
        {
          "indexed": false,
          "internalType": "string",
          "name": "name",
          "type": "string"
        }
      ],
      "name": "InvestorAssetAdded",
      "type": "event"
    },
    {
      "anonymous": false,
      "inputs": [
        {
          "indexed": true,
          "internalType": "address",
          "name": "previousOwner",
          "type": "address"
        },
        {
          "indexed": true,
          "internalType": "address",
          "name": "newOwner",
          "type": "address"
        }
      ],
      "name": "OwnershipTransferred",
      "type": "event"
    },
    {
      "anonymous": false,
      "inputs": [
        {
          "indexed": false,
          "internalType": "bytes32",
          "name": "id",
          "type": "bytes32"
        },
        {
          "indexed": false,
          "internalType": "bool",
          "name": "isActive",
          "type": "bool"
        }
      ],
      "name": "SetInvestorAsset",
      "type": "event"
    },
    {
      "anonymous": false,
      "inputs": [
        {
          "indexed": true,
          "internalType": "bytes32",
          "name": "userId",
          "type": "bytes32"
        },
        {
          "indexed": true,
          "internalType": "bytes32",
          "name": "assetId",
          "type": "bytes32"
        },
        {
          "indexed": false,
          "internalType": "uint256",
          "name": "tokenAmount",
          "type": "uint256"
        },
        {
          "indexed": false,
          "internalType": "uint256",
          "name": "usdValue",
          "type": "uint256"
        }
      ],
      "name": "UserInvested",
      "type": "event"
    },
    {
      "anonymous": false,
      "inputs": [
        {
          "indexed": true,
          "internalType": "bytes32",
          "name": "userId",
          "type": "bytes32"
        },
        {
          "indexed": true,
          "internalType": "bytes32",
          "name": "assetId",
          "type": "bytes32"
        },
        {
          "indexed": false,
          "internalType": "uint256",
          "name": "tokenAmount",
          "type": "uint256"
        },
        {
          "indexed": false,
          "internalType": "uint256",
          "name": "usdValue",
          "type": "uint256"
        }
      ],
      "name": "UserWithdraw",
      "type": "event"
    },
    {
      "inputs": [
        {
          "internalType": "bytes32",
          "name": "id",
          "type": "bytes32"
        },
        {
          "internalType": "string",
          "name": "name",
          "type": "string"
        },
        {
          "internalType": "address",
          "name": "investmentToken",
          "type": "address"
        }
      ],
      "name": "addInvestmentOption",
      "outputs": [],
      "stateMutability": "nonpayable",
      "type": "function"
    },
    {
      "inputs": [
        {
          "internalType": "bytes32",
          "name": "userId",
          "type": "bytes32"
        },
        {
          "internalType": "enum InvestorProfile.InvestorCategory",
          "name": "category",
          "type": "uint8"
        }
      ],
      "name": "addInvestor",
      "outputs": [],
      "stateMutability": "nonpayable",
      "type": "function"
    },
    {
      "inputs": [
        {
          "internalType": "bytes32",
          "name": "userId",
          "type": "bytes32"
        },
        {
          "internalType": "bytes32",
          "name": "assetId",
          "type": "bytes32"
        },
        {
          "internalType": "uint256",
          "name": "tokenAmount",
          "type": "uint256"
        },
        {
          "internalType": "uint256",
          "name": "usdAmount",
          "type": "uint256"
        }
      ],
      "name": "addUserInvestment",
      "outputs": [],
      "stateMutability": "nonpayable",
      "type": "function"
    },
    {
      "inputs": [
        {
          "internalType": "bytes32",
          "name": "",
          "type": "bytes32"
        }
      ],
      "name": "investmentAssets",
      "outputs": [
        {
          "internalType": "bytes32",
          "name": "id",
          "type": "bytes32"
        },
        {
          "internalType": "string",
          "name": "name",
          "type": "string"
        },
        {
          "internalType": "address",
          "name": "investmentToken",
          "type": "address"
        },
        {
          "internalType": "bool",
          "name": "isActive",
          "type": "bool"
        }
      ],
      "stateMutability": "view",
      "type": "function"
    },
    {
      "inputs": [],
      "name": "owner",
      "outputs": [
        {
          "internalType": "address",
          "name": "",
          "type": "address"
        }
      ],
      "stateMutability": "view",
      "type": "function"
    },
    {
      "inputs": [],
      "name": "renounceOwnership",
      "outputs": [],
      "stateMutability": "nonpayable",
      "type": "function"
    },
    {
      "inputs": [
        {
          "internalType": "address",
          "name": "admin",
          "type": "address"
        },
        {
          "internalType": "bool",
          "name": "enable",
          "type": "bool"
        }
      ],
      "name": "setAdmin",
      "outputs": [],
      "stateMutability": "nonpayable",
      "type": "function"
    },
    {
      "inputs": [
        {
          "internalType": "bytes32",
          "name": "id",
          "type": "bytes32"
        },
        {
          "internalType": "bool",
          "name": "enable",
          "type": "bool"
        }
      ],
      "name": "setInvestmentOption",
      "outputs": [],
      "stateMutability": "nonpayable",
      "type": "function"
    },
    {
      "inputs": [
        {
          "internalType": "address",
          "name": "newOwner",
          "type": "address"
        }
      ],
      "name": "transferOwnership",
      "outputs": [],
      "stateMutability": "nonpayable",
      "type": "function"
    },
    {
      "inputs": [
        {
          "internalType": "bytes32",
          "name": "userId",
          "type": "bytes32"
        },
        {
          "internalType": "bytes32",
          "name": "assetId",
          "type": "bytes32"
        },
        {
          "internalType": "uint256",
          "name": "tokenAmount",
          "type": "uint256"
        },
        {
          "internalType": "uint256",
          "name": "usdAmount",
          "type": "uint256"
        }
      ],
      "name": "withdrawUserInvestment",
      "outputs": [],
      "stateMutability": "nonpayable",
      "type": "function"
    }
  ],
  "transactionHash": "0x46bd2521fa190b4f6fbb0c79c8d5c5418ce05ce44f752ed7f8948936678689e0",
  "args": [],
  "numDeployments": 1,
  "solcInputHash": "d29c6cbcd4439e44b859bc48b9d79d74",
  "bytecode": "0x60806040523480156200001157600080fd5b5033600073ffffffffffffffffffffffffffffffffffffffff168173ffffffffffffffffffffffffffffffffffffffff1603620000885760006040517f1e4fbdf70000000000000000000000000000000000000000000000000000000081526004016200007f9190620001a9565b60405180910390fd5b6200009981620000a060201b60201c565b50620001c6565b60008060009054906101000a900473ffffffffffffffffffffffffffffffffffffffff169050816000806101000a81548173ffffffffffffffffffffffffffffffffffffffff021916908373ffffffffffffffffffffffffffffffffffffffff1602179055508173ffffffffffffffffffffffffffffffffffffffff168173ffffffffffffffffffffffffffffffffffffffff167f8be0079c531659141344cd1fd0a4f28419497f9722a3daafe3b4186f6b6457e060405160405180910390a35050565b600073ffffffffffffffffffffffffffffffffffffffff82169050919050565b6000620001918262000164565b9050919050565b620001a38162000184565b82525050565b6000602082019050620001c0600083018462000198565b92915050565b611f9380620001d66000396000f3fe608060405234801561001057600080fd5b506004361061009d5760003560e01c806388b6810d1161006657806388b6810d146101335780638d8e508a1461014f5780638da5cb5b1461016b578063ef75e8ff14610189578063f2fde38b146101a55761009d565b8062dd2957146100a257806307a9bcc1146100d55780634b0bddd2146100f1578063544a96131461010d578063715018a614610129575b600080fd5b6100bc60048036038101906100b79190611258565b6101c1565b6040516100cc9493929190611380565b60405180910390f35b6100ef60048036038101906100ea919061152d565b6102a6565b005b61010b600480360381019061010691906115c8565b610566565b005b61012760048036038101906101229190611608565b610617565b005b61013161082d565b005b61014d6004803603810190610148919061167e565b610841565b005b6101696004803603810190610164919061167e565b610b74565b005b610173610e08565b60405161018091906116e5565b60405180910390f35b6101a3600480360381019061019e9190611725565b610e31565b005b6101bf60048036038101906101ba9190611765565b610f5d565b005b60036020528060005260406000206000915090508060000154908060010180546101ea906117c1565b80601f0160208091040260200160405190810160405280929190818152602001828054610216906117c1565b80156102635780601f1061023857610100808354040283529160200191610263565b820191906000526020600020905b81548152906001019060200180831161024657829003601f168201915b5050505050908060020160009054906101000a900473ffffffffffffffffffffffffffffffffffffffff16908060020160149054906101000a900460ff16905084565b6102ae610fe3565b600060036000858152602001908152602001600020604051806080016040529081600082015481526020016001820180546102e8906117c1565b80601f0160208091040260200160405190810160405280929190818152602001828054610314906117c1565b80156103615780601f1061033657610100808354040283529160200191610361565b820191906000526020600020905b81548152906001019060200180831161034457829003601f168201915b505050505081526020016002820160009054906101000a900473ffffffffffffffffffffffffffffffffffffffff1673ffffffffffffffffffffffffffffffffffffffff1673ffffffffffffffffffffffffffffffffffffffff1681526020016002820160149054906101000a900460ff1615151515815250509050600073ffffffffffffffffffffffffffffffffffffffff16816040015173ffffffffffffffffffffffffffffffffffffffff1614610450576040517f08c379a00000000000000000000000000000000000000000000000000000000081526004016104479061183e565b60405180910390fd5b60405180608001604052808581526020018481526020018373ffffffffffffffffffffffffffffffffffffffff16815260200160011515815250600360008681526020019081526020016000206000820151816000015560208201518160010190816104bc9190611a0a565b5060408201518160020160006101000a81548173ffffffffffffffffffffffffffffffffffffffff021916908373ffffffffffffffffffffffffffffffffffffffff16021790555060608201518160020160146101000a81548160ff0219169083151502179055509050507f16e326671af52e8aa72f69e003dc3359c6d5fdcfad013195980f8eeab5493c608484604051610558929190611adc565b60405180910390a150505050565b61056e610fe3565b80600160008473ffffffffffffffffffffffffffffffffffffffff1673ffffffffffffffffffffffffffffffffffffffff16815260200190815260200160002060006101000a81548160ff0219169083151502179055508173ffffffffffffffffffffffffffffffffffffffff167fe68d2c359a771606c400cf8b87000cf5864010363d6a736e98f5047b7bbe18e98260405161060b9190611b0c565b60405180910390a25050565b61061f610fe3565b60006003600084815260200190815260200160002060405180608001604052908160008201548152602001600182018054610659906117c1565b80601f0160208091040260200160405190810160405280929190818152602001828054610685906117c1565b80156106d25780601f106106a7576101008083540402835291602001916106d2565b820191906000526020600020905b8154815290600101906020018083116106b557829003601f168201915b505050505081526020016002820160009054906101000a900473ffffffffffffffffffffffffffffffffffffffff1673ffffffffffffffffffffffffffffffffffffffff1673ffffffffffffffffffffffffffffffffffffffff1681526020016002820160149054906101000a900460ff1615151515815250509050600073ffffffffffffffffffffffffffffffffffffffff16816040015173ffffffffffffffffffffffffffffffffffffffff16036107c1576040517f08c379a00000000000000000000000000000000000000000000000000000000081526004016107b890611b73565b60405180910390fd5b816003600085815260200190815260200160002060020160146101000a81548160ff0219169083151502179055507f6316e9e8f37c7ac21fa13914f9a9f3d09b95e5fa2f4fa40ab91f4721912c6e678383604051610820929190611b93565b60405180910390a1505050565b610835610fe3565b61083f600061106a565b565b61084961112e565b60006003600085815260200190815260200160002060405180608001604052908160008201548152602001600182018054610883906117c1565b80601f01602080910402602001604051908101604052809291908181526020018280546108af906117c1565b80156108fc5780601f106108d1576101008083540402835291602001916108fc565b820191906000526020600020905b8154815290600101906020018083116108df57829003601f168201915b505050505081526020016002820160009054906101000a900473ffffffffffffffffffffffffffffffffffffffff1673ffffffffffffffffffffffffffffffffffffffff1673ffffffffffffffffffffffffffffffffffffffff1681526020016002820160149054906101000a900460ff1615151515815250509050600073ffffffffffffffffffffffffffffffffffffffff16816040015173ffffffffffffffffffffffffffffffffffffffff16036109eb576040517f08c379a00000000000000000000000000000000000000000000000000000000081526004016109e290611c08565b60405180910390fd5b60006002600087815260200190815260200160002090506000801b816000015414610a4b576040517f08c379a0000000000000000000000000000000000000000000000000000000008152600401610a4290611c74565b60405180910390fd5b83816003016000878152602001908152602001600020541015610aa3576040517f08c379a0000000000000000000000000000000000000000000000000000000008152600401610a9a90611ce0565b60405180910390fd5b8281600201541015610aea576040517f08c379a0000000000000000000000000000000000000000000000000000000008152600401610ae190611d4c565b60405180910390fd5b838160030160008781526020019081526020016000206000828254610b0f9190611d9b565b9250508190555082816002016000828254610b2a9190611d9b565b9250508190555084867f9d5342394493a60c73b305d5f70c8fce67dc3de4c151ca481cd5072925d581d48686604051610b64929190611dde565b60405180910390a3505050505050565b610b7c61112e565b60006003600085815260200190815260200160002060405180608001604052908160008201548152602001600182018054610bb6906117c1565b80601f0160208091040260200160405190810160405280929190818152602001828054610be2906117c1565b8015610c2f5780601f10610c0457610100808354040283529160200191610c2f565b820191906000526020600020905b815481529060010190602001808311610c1257829003601f168201915b505050505081526020016002820160009054906101000a900473ffffffffffffffffffffffffffffffffffffffff1673ffffffffffffffffffffffffffffffffffffffff1673ffffffffffffffffffffffffffffffffffffffff1681526020016002820160149054906101000a900460ff1615151515815250509050600073ffffffffffffffffffffffffffffffffffffffff16816040015173ffffffffffffffffffffffffffffffffffffffff1603610d1e576040517f08c379a0000000000000000000000000000000000000000000000000000000008152600401610d1590611c08565b60405180910390fd5b60006002600087815260200190815260200160002090506000801b816000015414610d7e576040517f08c379a0000000000000000000000000000000000000000000000000000000008152600401610d7590611c74565b60405180910390fd5b838160030160008781526020019081526020016000206000828254610da39190611e07565b9250508190555082816002016000828254610dbe9190611e07565b9250508190555084867fee40770bb62dbe8676b49925339cc79342693609b6c807b2fc8bea82e87e28518686604051610df8929190611dde565b60405180910390a3505050505050565b60008060009054906101000a900473ffffffffffffffffffffffffffffffffffffffff16905090565b610e3961112e565b60006002600084815260200190815260200160002090506000801b816000015403610e99576040517f08c379a0000000000000000000000000000000000000000000000000000000008152600401610e9090611e87565b60405180910390fd5b826002600085815260200190815260200160002060000181905550816002600085815260200190815260200160002060010160006101000a81548160ff02191690836001811115610eed57610eec611ea7565b5b021790555060006002600085815260200190815260200160002060020181905550816001811115610f2157610f20611ea7565b5b7fad7bdab74417facd46f51a883dad12566dfc0cc6ca4427678cae2ddf3dcba8a484604051610f509190611ed6565b60405180910390a2505050565b610f65610fe3565b600073ffffffffffffffffffffffffffffffffffffffff168173ffffffffffffffffffffffffffffffffffffffff1603610fd75760006040517f1e4fbdf7000000000000000000000000000000000000000000000000000000008152600401610fce91906116e5565b60405180910390fd5b610fe08161106a565b50565b610feb611206565b73ffffffffffffffffffffffffffffffffffffffff16611009610e08565b73ffffffffffffffffffffffffffffffffffffffff16146110685761102c611206565b6040517f118cdaa700000000000000000000000000000000000000000000000000000000815260040161105f91906116e5565b60405180910390fd5b565b60008060009054906101000a900473ffffffffffffffffffffffffffffffffffffffff169050816000806101000a81548173ffffffffffffffffffffffffffffffffffffffff021916908373ffffffffffffffffffffffffffffffffffffffff1602179055508173ffffffffffffffffffffffffffffffffffffffff168173ffffffffffffffffffffffffffffffffffffffff167f8be0079c531659141344cd1fd0a4f28419497f9722a3daafe3b4186f6b6457e060405160405180910390a35050565b6000611138611206565b9050600160008273ffffffffffffffffffffffffffffffffffffffff1673ffffffffffffffffffffffffffffffffffffffff16815260200190815260200160002060009054906101000a900460ff16806111c457508073ffffffffffffffffffffffffffffffffffffffff166111ac610e08565b73ffffffffffffffffffffffffffffffffffffffff16145b611203576040517f08c379a00000000000000000000000000000000000000000000000000000000081526004016111fa90611f3d565b60405180910390fd5b50565b600033905090565b6000604051905090565b600080fd5b600080fd5b6000819050919050565b61123581611222565b811461124057600080fd5b50565b6000813590506112528161122c565b92915050565b60006020828403121561126e5761126d611218565b5b600061127c84828501611243565b91505092915050565b61128e81611222565b82525050565b600081519050919050565b600082825260208201905092915050565b60005b838110156112ce5780820151818401526020810190506112b3565b60008484015250505050565b6000601f19601f8301169050919050565b60006112f682611294565b611300818561129f565b93506113108185602086016112b0565b611319816112da565b840191505092915050565b600073ffffffffffffffffffffffffffffffffffffffff82169050919050565b600061134f82611324565b9050919050565b61135f81611344565b82525050565b60008115159050919050565b61137a81611365565b82525050565b60006080820190506113956000830187611285565b81810360208301526113a781866112eb565b90506113b66040830185611356565b6113c36060830184611371565b95945050505050565b600080fd5b600080fd5b7f4e487b7100000000000000000000000000000000000000000000000000000000600052604160045260246000fd5b61140e826112da565b810181811067ffffffffffffffff8211171561142d5761142c6113d6565b5b80604052505050565b600061144061120e565b905061144c8282611405565b919050565b600067ffffffffffffffff82111561146c5761146b6113d6565b5b611475826112da565b9050602081019050919050565b82818337600083830152505050565b60006114a461149f84611451565b611436565b9050828152602081018484840111156114c0576114bf6113d1565b5b6114cb848285611482565b509392505050565b600082601f8301126114e8576114e76113cc565b5b81356114f8848260208601611491565b91505092915050565b61150a81611344565b811461151557600080fd5b50565b60008135905061152781611501565b92915050565b60008060006060848603121561154657611545611218565b5b600061155486828701611243565b935050602084013567ffffffffffffffff8111156115755761157461121d565b5b611581868287016114d3565b925050604061159286828701611518565b9150509250925092565b6115a581611365565b81146115b057600080fd5b50565b6000813590506115c28161159c565b92915050565b600080604083850312156115df576115de611218565b5b60006115ed85828601611518565b92505060206115fe858286016115b3565b9150509250929050565b6000806040838503121561161f5761161e611218565b5b600061162d85828601611243565b925050602061163e858286016115b3565b9150509250929050565b6000819050919050565b61165b81611648565b811461166657600080fd5b50565b60008135905061167881611652565b92915050565b6000806000806080858703121561169857611697611218565b5b60006116a687828801611243565b94505060206116b787828801611243565b93505060406116c887828801611669565b92505060606116d987828801611669565b91505092959194509250565b60006020820190506116fa6000830184611356565b92915050565b6002811061170d57600080fd5b50565b60008135905061171f81611700565b92915050565b6000806040838503121561173c5761173b611218565b5b600061174a85828601611243565b925050602061175b85828601611710565b9150509250929050565b60006020828403121561177b5761177a611218565b5b600061178984828501611518565b91505092915050565b7f4e487b7100000000000000000000000000000000000000000000000000000000600052602260045260246000fd5b600060028204905060018216806117d957607f821691505b6020821081036117ec576117eb611792565b5b50919050565b7f496420616c72656164792074616b656e00000000000000000000000000000000600082015250565b600061182860108361129f565b9150611833826117f2565b602082019050919050565b600060208201905081810360008301526118578161181b565b9050919050565b60008190508160005260206000209050919050565b60006020601f8301049050919050565b600082821b905092915050565b6000600883026118c07fffffffffffffffffffffffffffffffffffffffffffffffffffffffffffffffff82611883565b6118ca8683611883565b95508019841693508086168417925050509392505050565b6000819050919050565b60006119076119026118fd84611648565b6118e2565b611648565b9050919050565b6000819050919050565b611921836118ec565b61193561192d8261190e565b848454611890565b825550505050565b600090565b61194a61193d565b611955818484611918565b505050565b5b818110156119795761196e600082611942565b60018101905061195b565b5050565b601f8211156119be5761198f8161185e565b61199884611873565b810160208510156119a7578190505b6119bb6119b385611873565b83018261195a565b50505b505050565b600082821c905092915050565b60006119e1600019846008026119c3565b1980831691505092915050565b60006119fa83836119d0565b9150826002028217905092915050565b611a1382611294565b67ffffffffffffffff811115611a2c57611a2b6113d6565b5b611a3682546117c1565b611a4182828561197d565b600060209050601f831160018114611a745760008415611a62578287015190505b611a6c85826119ee565b865550611ad4565b601f198416611a828661185e565b60005b82811015611aaa57848901518255600182019150602085019450602081019050611a85565b86831015611ac75784890151611ac3601f8916826119d0565b8355505b6001600288020188555050505b505050505050565b6000604082019050611af16000830185611285565b8181036020830152611b0381846112eb565b90509392505050565b6000602082019050611b216000830184611371565b92915050565b7f496e76616c696420696400000000000000000000000000000000000000000000600082015250565b6000611b5d600a8361129f565b9150611b6882611b27565b602082019050919050565b60006020820190508181036000830152611b8c81611b50565b9050919050565b6000604082019050611ba86000830185611285565b611bb56020830184611371565b9392505050565b7f496e76616c696420617373657420696400000000000000000000000000000000600082015250565b6000611bf260108361129f565b9150611bfd82611bbc565b602082019050919050565b60006020820190508181036000830152611c2181611be5565b9050919050565b7f496e76616c696420757365722069640000000000000000000000000000000000600082015250565b6000611c5e600f8361129f565b9150611c6982611c28565b602082019050919050565b60006020820190508181036000830152611c8d81611c51565b9050919050565b7f496e76616c696420776974686472617720616d6f756e74000000000000000000600082015250565b6000611cca60178361129f565b9150611cd582611c94565b602082019050919050565b60006020820190508181036000830152611cf981611cbd565b9050919050565b7f496e76616c69642075736420616d6f756e740000000000000000000000000000600082015250565b6000611d3660128361129f565b9150611d4182611d00565b602082019050919050565b60006020820190508181036000830152611d6581611d29565b9050919050565b7f4e487b7100000000000000000000000000000000000000000000000000000000600052601160045260246000fd5b6000611da682611648565b9150611db183611648565b9250828203905081811115611dc957611dc8611d6c565b5b92915050565b611dd881611648565b82525050565b6000604082019050611df36000830185611dcf565b611e006020830184611dcf565b9392505050565b6000611e1282611648565b9150611e1d83611648565b9250828201905080821115611e3557611e34611d6c565b5b92915050565b7f55736572496420616c72656164792074616b656e000000000000000000000000600082015250565b6000611e7160148361129f565b9150611e7c82611e3b565b602082019050919050565b60006020820190508181036000830152611ea081611e64565b9050919050565b7f4e487b7100000000000000000000000000000000000000000000000000000000600052602160045260246000fd5b6000602082019050611eeb6000830184611285565b92915050565b7f526f6c65733a204e6f7420616c6c6f7765640000000000000000000000000000600082015250565b6000611f2760128361129f565b9150611f3282611ef1565b602082019050919050565b60006020820190508181036000830152611f5681611f1a565b905091905056fea26469706673582212207bed6636f92147b5883d1280b1adb4ea0e5da0b239829c92cc86ea007eff78a464736f6c63430008140033",
  "devdoc": {
    "errors": {
      "OwnableInvalidOwner(address)": [
        {
          "details": "The owner is not a valid owner account. (eg. `address(0)`)"
        }
      ],
      "OwnableUnauthorizedAccount(address)": [
        {
          "details": "The caller account is not authorized to perform an operation."
        }
      ]
    },
    "kind": "dev",
    "methods": {
      "owner()": {
        "details": "Returns the address of the current owner."
      },
      "renounceOwnership()": {
        "details": "Leaves the contract without owner. It will not be possible to call `onlyOwner` functions. Can only be called by the current owner. NOTE: Renouncing ownership will leave the contract without an owner, thereby disabling any functionality that is only available to the owner."
      },
      "transferOwnership(address)": {
        "details": "Transfers ownership of the contract to a new account (`newOwner`). Can only be called by the current owner."
      }
    },
    "version": 1
  },
  "userdoc": {
    "kind": "user",
    "methods": {},
    "version": 1
  },
  "storageLayout": {
    "storage": [
      {
        "astId": 8,
        "contract": "contracts/InvestorProfile.sol:InvestorProfile",
        "label": "_owner",
        "offset": 0,
        "slot": "0",
        "type": "t_address"
      },
      {
        "astId": 653,
        "contract": "contracts/InvestorProfile.sol:InvestorProfile",
        "label": "admins",
        "offset": 0,
        "slot": "1",
        "type": "t_mapping(t_address,t_bool)"
      },
      {
        "astId": 250,
        "contract": "contracts/InvestorProfile.sol:InvestorProfile",
        "label": "investors",
        "offset": 0,
        "slot": "2",
        "type": "t_mapping(t_bytes32,t_struct(Investor)197_storage)"
      },
      {
        "astId": 255,
        "contract": "contracts/InvestorProfile.sol:InvestorProfile",
        "label": "investmentAssets",
        "offset": 0,
        "slot": "3",
        "type": "t_mapping(t_bytes32,t_struct(InvestmentAsset)206_storage)"
      }
    ],
    "types": {
      "t_address": {
        "encoding": "inplace",
        "label": "address",
        "numberOfBytes": "20"
      },
      "t_bool": {
        "encoding": "inplace",
        "label": "bool",
        "numberOfBytes": "1"
      },
      "t_bytes32": {
        "encoding": "inplace",
        "label": "bytes32",
        "numberOfBytes": "32"
      },
      "t_enum(InvestorCategory)185": {
        "encoding": "inplace",
        "label": "enum InvestorProfile.InvestorCategory",
        "numberOfBytes": "1"
      },
      "t_mapping(t_address,t_bool)": {
        "encoding": "mapping",
        "key": "t_address",
        "label": "mapping(address => bool)",
        "numberOfBytes": "32",
        "value": "t_bool"
      },
      "t_mapping(t_bytes32,t_struct(InvestmentAsset)206_storage)": {
        "encoding": "mapping",
        "key": "t_bytes32",
        "label": "mapping(bytes32 => struct InvestorProfile.InvestmentAsset)",
        "numberOfBytes": "32",
        "value": "t_struct(InvestmentAsset)206_storage"
      },
      "t_mapping(t_bytes32,t_struct(Investor)197_storage)": {
        "encoding": "mapping",
        "key": "t_bytes32",
        "label": "mapping(bytes32 => struct InvestorProfile.Investor)",
        "numberOfBytes": "32",
        "value": "t_struct(Investor)197_storage"
      },
      "t_mapping(t_bytes32,t_uint256)": {
        "encoding": "mapping",
        "key": "t_bytes32",
        "label": "mapping(bytes32 => uint256)",
        "numberOfBytes": "32",
        "value": "t_uint256"
      },
      "t_string_storage": {
        "encoding": "bytes",
        "label": "string",
        "numberOfBytes": "32"
      },
      "t_struct(InvestmentAsset)206_storage": {
        "encoding": "inplace",
        "label": "struct InvestorProfile.InvestmentAsset",
        "members": [
          {
            "astId": 199,
            "contract": "contracts/InvestorProfile.sol:InvestorProfile",
            "label": "id",
            "offset": 0,
            "slot": "0",
            "type": "t_bytes32"
          },
          {
            "astId": 201,
            "contract": "contracts/InvestorProfile.sol:InvestorProfile",
            "label": "name",
            "offset": 0,
            "slot": "1",
            "type": "t_string_storage"
          },
          {
            "astId": 203,
            "contract": "contracts/InvestorProfile.sol:InvestorProfile",
            "label": "investmentToken",
            "offset": 0,
            "slot": "2",
            "type": "t_address"
          },
          {
            "astId": 205,
            "contract": "contracts/InvestorProfile.sol:InvestorProfile",
            "label": "isActive",
            "offset": 20,
            "slot": "2",
            "type": "t_bool"
          }
        ],
        "numberOfBytes": "96"
      },
      "t_struct(Investor)197_storage": {
        "encoding": "inplace",
        "label": "struct InvestorProfile.Investor",
        "members": [
          {
            "astId": 187,
            "contract": "contracts/InvestorProfile.sol:InvestorProfile",
            "label": "userId",
            "offset": 0,
            "slot": "0",
            "type": "t_bytes32"
          },
          {
            "astId": 190,
            "contract": "contracts/InvestorProfile.sol:InvestorProfile",
            "label": "category",
            "offset": 0,
            "slot": "1",
            "type": "t_enum(InvestorCategory)185"
          },
          {
            "astId": 192,
            "contract": "contracts/InvestorProfile.sol:InvestorProfile",
            "label": "portfolioValue",
            "offset": 0,
            "slot": "2",
            "type": "t_uint256"
          },
          {
            "astId": 196,
            "contract": "contracts/InvestorProfile.sol:InvestorProfile",
            "label": "investments",
            "offset": 0,
            "slot": "3",
            "type": "t_mapping(t_bytes32,t_uint256)"
          }
        ],
        "numberOfBytes": "128"
      },
      "t_uint256": {
        "encoding": "inplace",
        "label": "uint256",
        "numberOfBytes": "32"
      }
    }
  }
}