{
  "address": "0x3FF9A2e259eCb447B1B3e4960eccC2034E3F9D2b",
  "abi": [
    {
      "inputs": [
        {
          "internalType": "address",
          "name": "owner",
          "type": "address"
        }
      ],
      "name": "OwnableInvalidOwner",
      "type": "error"
    },
    {
      "inputs": [
        {
          "internalType": "address",
          "name": "account",
          "type": "address"
        }
      ],
      "name": "OwnableUnauthorizedAccount",
      "type": "error"
    },
    {
      "anonymous": false,
      "inputs": [
        {
          "indexed": true,
          "internalType": "address",
          "name": "admin",
          "type": "address"
        },
        {
          "indexed": false,
          "internalType": "bool",
          "name": "enable",
          "type": "bool"
        }
      ],
      "name": "AdminSet",
      "type": "event"
    },
    {
      "anonymous": false,
      "inputs": [
        {
          "indexed": false,
          "internalType": "bytes32",
          "name": "investorId",
          "type": "bytes32"
        },
        {
          "indexed": true,
          "internalType": "enum InvestorProfile.InvestorCategory",
          "name": "category",
          "type": "uint8"
        }
      ],
      "name": "InvestorAdded",
      "type": "event"
    },
    {
      "anonymous": false,
      "inputs": [
        {
          "indexed": false,
          "internalType": "bytes32",
          "name": "id",
          "type": "bytes32"
        },
        {
          "indexed": false,
          "internalType": "string",
          "name": "name",
          "type": "string"
        }
      ],
      "name": "InvestorAssetAdded",
      "type": "event"
    },
    {
      "anonymous": false,
      "inputs": [
        {
          "indexed": true,
          "internalType": "address",
          "name": "previousOwner",
          "type": "address"
        },
        {
          "indexed": true,
          "internalType": "address",
          "name": "newOwner",
          "type": "address"
        }
      ],
      "name": "OwnershipTransferred",
      "type": "event"
    },
    {
      "anonymous": false,
      "inputs": [
        {
          "indexed": false,
          "internalType": "bytes32",
          "name": "id",
          "type": "bytes32"
        },
        {
          "indexed": false,
          "internalType": "bool",
          "name": "isActive",
          "type": "bool"
        }
      ],
      "name": "SetInvestorAsset",
      "type": "event"
    },
    {
      "anonymous": false,
      "inputs": [
        {
          "indexed": true,
          "internalType": "bytes32",
          "name": "userId",
          "type": "bytes32"
        },
        {
          "indexed": true,
          "internalType": "bytes32",
          "name": "assetId",
          "type": "bytes32"
        },
        {
          "indexed": false,
          "internalType": "uint256",
          "name": "tokenAmount",
          "type": "uint256"
        },
        {
          "indexed": false,
          "internalType": "uint256",
          "name": "assetAmount",
          "type": "uint256"
        }
      ],
      "name": "UserInvested",
      "type": "event"
    },
    {
      "anonymous": false,
      "inputs": [
        {
          "indexed": true,
          "internalType": "bytes32",
          "name": "userId",
          "type": "bytes32"
        },
        {
          "indexed": true,
          "internalType": "bytes32",
          "name": "assetId",
          "type": "bytes32"
        },
        {
          "indexed": false,
          "internalType": "uint256",
          "name": "tokenAmount",
          "type": "uint256"
        },
        {
          "indexed": false,
          "internalType": "uint256",
          "name": "assetAmount",
          "type": "uint256"
        }
      ],
      "name": "UserWithdraw",
      "type": "event"
    },
    {
      "inputs": [
        {
          "internalType": "bytes32",
          "name": "id",
          "type": "bytes32"
        },
        {
          "internalType": "string",
          "name": "name",
          "type": "string"
        },
        {
          "internalType": "uint256",
          "name": "chainId",
          "type": "uint256"
        },
        {
          "internalType": "address",
          "name": "investmentToken",
          "type": "address"
        },
        {
          "internalType": "address",
          "name": "assetToken",
          "type": "address"
        }
      ],
      "name": "addInvestmentOption",
      "outputs": [],
      "stateMutability": "nonpayable",
      "type": "function"
    },
    {
      "inputs": [
        {
          "internalType": "bytes32",
          "name": "userId",
          "type": "bytes32"
        },
        {
          "internalType": "enum InvestorProfile.InvestorCategory",
          "name": "category",
          "type": "uint8"
        }
      ],
      "name": "addInvestor",
      "outputs": [],
      "stateMutability": "nonpayable",
      "type": "function"
    },
    {
      "inputs": [
        {
          "internalType": "bytes32",
          "name": "userId",
          "type": "bytes32"
        },
        {
          "internalType": "bytes32",
          "name": "assetId",
          "type": "bytes32"
        },
        {
          "internalType": "uint256",
          "name": "tokenAmount",
          "type": "uint256"
        },
        {
          "internalType": "uint256",
          "name": "assetAmount",
          "type": "uint256"
        }
      ],
      "name": "addUserInvestment",
      "outputs": [],
      "stateMutability": "nonpayable",
      "type": "function"
    },
    {
      "inputs": [
        {
          "internalType": "bytes32",
          "name": "",
          "type": "bytes32"
        }
      ],
      "name": "investmentAssets",
      "outputs": [
        {
          "internalType": "bytes32",
          "name": "id",
          "type": "bytes32"
        },
        {
          "internalType": "string",
          "name": "name",
          "type": "string"
        },
        {
          "internalType": "address",
          "name": "investmentToken",
          "type": "address"
        },
        {
          "internalType": "address",
          "name": "assetToken",
          "type": "address"
        },
        {
          "internalType": "uint256",
          "name": "chainId",
          "type": "uint256"
        },
        {
          "internalType": "bool",
          "name": "isActive",
          "type": "bool"
        }
      ],
      "stateMutability": "view",
      "type": "function"
    },
    {
      "inputs": [],
      "name": "owner",
      "outputs": [
        {
          "internalType": "address",
          "name": "",
          "type": "address"
        }
      ],
      "stateMutability": "view",
      "type": "function"
    },
    {
      "inputs": [],
      "name": "renounceOwnership",
      "outputs": [],
      "stateMutability": "nonpayable",
      "type": "function"
    },
    {
      "inputs": [
        {
          "internalType": "address",
          "name": "admin",
          "type": "address"
        },
        {
          "internalType": "bool",
          "name": "enable",
          "type": "bool"
        }
      ],
      "name": "setAdmin",
      "outputs": [],
      "stateMutability": "nonpayable",
      "type": "function"
    },
    {
      "inputs": [
        {
          "internalType": "bytes32",
          "name": "id",
          "type": "bytes32"
        },
        {
          "internalType": "bool",
          "name": "enable",
          "type": "bool"
        }
      ],
      "name": "setInvestmentOption",
      "outputs": [],
      "stateMutability": "nonpayable",
      "type": "function"
    },
    {
      "inputs": [
        {
          "internalType": "address",
          "name": "newOwner",
          "type": "address"
        }
      ],
      "name": "transferOwnership",
      "outputs": [],
      "stateMutability": "nonpayable",
      "type": "function"
    }
  ],
  "transactionHash": "0x4181ddda1a494c606b92ac134033b86a938effe08d7bc316b5bb43b63160c916",
  "args": [],
  "numDeployments": 3,
  "solcInputHash": "629ade887134d2dc001f2f4455109db7",
  "bytecode": "0x60806040523480156200001157600080fd5b5033600073ffffffffffffffffffffffffffffffffffffffff168173ffffffffffffffffffffffffffffffffffffffff1603620000885760006040517f1e4fbdf70000000000000000000000000000000000000000000000000000000081526004016200007f9190620001a9565b60405180910390fd5b6200009981620000a060201b60201c565b50620001c6565b60008060009054906101000a900473ffffffffffffffffffffffffffffffffffffffff169050816000806101000a81548173ffffffffffffffffffffffffffffffffffffffff021916908373ffffffffffffffffffffffffffffffffffffffff1602179055508173ffffffffffffffffffffffffffffffffffffffff168173ffffffffffffffffffffffffffffffffffffffff167f8be0079c531659141344cd1fd0a4f28419497f9722a3daafe3b4186f6b6457e060405160405180910390a35050565b600073ffffffffffffffffffffffffffffffffffffffff82169050919050565b6000620001918262000164565b9050919050565b620001a38162000184565b82525050565b6000602082019050620001c0600083018462000198565b92915050565b611d2f80620001d66000396000f3fe608060405234801561001057600080fd5b50600436106100925760003560e01c80638d8e508a116100665780638d8e508a1461010e5780638da5cb5b1461012a578063c735d69a14610148578063ef75e8ff14610164578063f2fde38b1461018057610092565b8062dd2957146100975780634b0bddd2146100cc578063544a9613146100e8578063715018a614610104575b600080fd5b6100b160048036038101906100ac91906110bc565b61019c565b6040516100c3969594939291906111fd565b60405180910390f35b6100e660048036038101906100e191906112bd565b6102ad565b005b61010260048036038101906100fd91906112fd565b61035e565b005b61010c6105d4565b005b61012860048036038101906101239190611369565b6105e8565b005b6101326108f3565b60405161013f91906113d0565b60405180910390f35b610162600480360381019061015d9190611520565b61091c565b005b61017e600480360381019061017991906115dc565b610cb1565b005b61019a6004803603810190610195919061161c565b610dc1565b005b60036020528060005260406000206000915090508060000154908060010180546101c590611678565b80601f01602080910402602001604051908101604052809291908181526020018280546101f190611678565b801561023e5780601f106102135761010080835404028352916020019161023e565b820191906000526020600020905b81548152906001019060200180831161022157829003601f168201915b5050505050908060020160009054906101000a900473ffffffffffffffffffffffffffffffffffffffff16908060030160009054906101000a900473ffffffffffffffffffffffffffffffffffffffff16908060040154908060050160009054906101000a900460ff16905086565b6102b5610e47565b80600160008473ffffffffffffffffffffffffffffffffffffffff1673ffffffffffffffffffffffffffffffffffffffff16815260200190815260200160002060006101000a81548160ff0219169083151502179055508173ffffffffffffffffffffffffffffffffffffffff167fe68d2c359a771606c400cf8b87000cf5864010363d6a736e98f5047b7bbe18e98260405161035291906116a9565b60405180910390a25050565b610366610e47565b6000600360008481526020019081526020016000206040518060c0016040529081600082015481526020016001820180546103a090611678565b80601f01602080910402602001604051908101604052809291908181526020018280546103cc90611678565b80156104195780601f106103ee57610100808354040283529160200191610419565b820191906000526020600020905b8154815290600101906020018083116103fc57829003601f168201915b505050505081526020016002820160009054906101000a900473ffffffffffffffffffffffffffffffffffffffff1673ffffffffffffffffffffffffffffffffffffffff1673ffffffffffffffffffffffffffffffffffffffff1681526020016003820160009054906101000a900473ffffffffffffffffffffffffffffffffffffffff1673ffffffffffffffffffffffffffffffffffffffff1673ffffffffffffffffffffffffffffffffffffffff168152602001600482015481526020016005820160009054906101000a900460ff1615151515815250509050600073ffffffffffffffffffffffffffffffffffffffff16816040015173ffffffffffffffffffffffffffffffffffffffff1603610568576040517f08c379a000000000000000000000000000000000000000000000000000000000815260040161055f90611710565b60405180910390fd5b816003600085815260200190815260200160002060050160006101000a81548160ff0219169083151502179055507f6316e9e8f37c7ac21fa13914f9a9f3d09b95e5fa2f4fa40ab91f4721912c6e6783836040516105c7929190611730565b60405180910390a1505050565b6105dc610e47565b6105e66000610ece565b565b6105f0610f92565b6000600360008581526020019081526020016000206040518060c00160405290816000820154815260200160018201805461062a90611678565b80601f016020809104026020016040519081016040528092919081815260200182805461065690611678565b80156106a35780601f10610678576101008083540402835291602001916106a3565b820191906000526020600020905b81548152906001019060200180831161068657829003601f168201915b505050505081526020016002820160009054906101000a900473ffffffffffffffffffffffffffffffffffffffff1673ffffffffffffffffffffffffffffffffffffffff1673ffffffffffffffffffffffffffffffffffffffff1681526020016003820160009054906101000a900473ffffffffffffffffffffffffffffffffffffffff1673ffffffffffffffffffffffffffffffffffffffff1673ffffffffffffffffffffffffffffffffffffffff168152602001600482015481526020016005820160009054906101000a900460ff1615151515815250509050600073ffffffffffffffffffffffffffffffffffffffff16816040015173ffffffffffffffffffffffffffffffffffffffff16036107f2576040517f08c379a00000000000000000000000000000000000000000000000000000000081526004016107e9906117a5565b60405180910390fd5b60006002600087815260200190815260200160002090506000801b816000015414610852576040517f08c379a000000000000000000000000000000000000000000000000000000000815260040161084990611811565b60405180910390fd5b83816002016000878152602001908152602001600020600001600082825461087a9190611860565b925050819055508281600201600087815260200190815260200160002060010160008282546108a99190611860565b9250508190555084867fee40770bb62dbe8676b49925339cc79342693609b6c807b2fc8bea82e87e285186866040516108e3929190611894565b60405180910390a3505050505050565b60008060009054906101000a900473ffffffffffffffffffffffffffffffffffffffff16905090565b610924610e47565b6000600360008781526020019081526020016000206040518060c00160405290816000820154815260200160018201805461095e90611678565b80601f016020809104026020016040519081016040528092919081815260200182805461098a90611678565b80156109d75780601f106109ac576101008083540402835291602001916109d7565b820191906000526020600020905b8154815290600101906020018083116109ba57829003601f168201915b505050505081526020016002820160009054906101000a900473ffffffffffffffffffffffffffffffffffffffff1673ffffffffffffffffffffffffffffffffffffffff1673ffffffffffffffffffffffffffffffffffffffff1681526020016003820160009054906101000a900473ffffffffffffffffffffffffffffffffffffffff1673ffffffffffffffffffffffffffffffffffffffff1673ffffffffffffffffffffffffffffffffffffffff168152602001600482015481526020016005820160009054906101000a900460ff1615151515815250509050600073ffffffffffffffffffffffffffffffffffffffff16816040015173ffffffffffffffffffffffffffffffffffffffff1614610b26576040517f08c379a0000000000000000000000000000000000000000000000000000000008152600401610b1d90611909565b60405180910390fd5b6040518060c001604052808781526020018681526020018473ffffffffffffffffffffffffffffffffffffffff1681526020018373ffffffffffffffffffffffffffffffffffffffff1681526020018581526020016001151581525060036000888152602001908152602001600020600082015181600001556020820151816001019081610bb49190611ad5565b5060408201518160020160006101000a81548173ffffffffffffffffffffffffffffffffffffffff021916908373ffffffffffffffffffffffffffffffffffffffff16021790555060608201518160030160006101000a81548173ffffffffffffffffffffffffffffffffffffffff021916908373ffffffffffffffffffffffffffffffffffffffff1602179055506080820151816004015560a08201518160050160006101000a81548160ff0219169083151502179055509050507f16e326671af52e8aa72f69e003dc3359c6d5fdcfad013195980f8eeab5493c608686604051610ca1929190611ba7565b60405180910390a1505050505050565b610cb9610f92565b60006002600084815260200190815260200160002090506000801b816000015414610d19576040517f08c379a0000000000000000000000000000000000000000000000000000000008152600401610d1090611c23565b60405180910390fd5b826002600085815260200190815260200160002060000181905550816002600085815260200190815260200160002060010160006101000a81548160ff02191690836001811115610d6d57610d6c611c43565b5b0217905550816001811115610d8557610d84611c43565b5b7fad7bdab74417facd46f51a883dad12566dfc0cc6ca4427678cae2ddf3dcba8a484604051610db49190611c72565b60405180910390a2505050565b610dc9610e47565b600073ffffffffffffffffffffffffffffffffffffffff168173ffffffffffffffffffffffffffffffffffffffff1603610e3b5760006040517f1e4fbdf7000000000000000000000000000000000000000000000000000000008152600401610e3291906113d0565b60405180910390fd5b610e4481610ece565b50565b610e4f61106a565b73ffffffffffffffffffffffffffffffffffffffff16610e6d6108f3565b73ffffffffffffffffffffffffffffffffffffffff1614610ecc57610e9061106a565b6040517f118cdaa7000000000000000000000000000000000000000000000000000000008152600401610ec391906113d0565b60405180910390fd5b565b60008060009054906101000a900473ffffffffffffffffffffffffffffffffffffffff169050816000806101000a81548173ffffffffffffffffffffffffffffffffffffffff021916908373ffffffffffffffffffffffffffffffffffffffff1602179055508173ffffffffffffffffffffffffffffffffffffffff168173ffffffffffffffffffffffffffffffffffffffff167f8be0079c531659141344cd1fd0a4f28419497f9722a3daafe3b4186f6b6457e060405160405180910390a35050565b6000610f9c61106a565b9050600160008273ffffffffffffffffffffffffffffffffffffffff1673ffffffffffffffffffffffffffffffffffffffff16815260200190815260200160002060009054906101000a900460ff168061102857508073ffffffffffffffffffffffffffffffffffffffff166110106108f3565b73ffffffffffffffffffffffffffffffffffffffff16145b611067576040517f08c379a000000000000000000000000000000000000000000000000000000000815260040161105e90611cd9565b60405180910390fd5b50565b600033905090565b6000604051905090565b600080fd5b600080fd5b6000819050919050565b61109981611086565b81146110a457600080fd5b50565b6000813590506110b681611090565b92915050565b6000602082840312156110d2576110d161107c565b5b60006110e0848285016110a7565b91505092915050565b6110f281611086565b82525050565b600081519050919050565b600082825260208201905092915050565b60005b83811015611132578082015181840152602081019050611117565b60008484015250505050565b6000601f19601f8301169050919050565b600061115a826110f8565b6111648185611103565b9350611174818560208601611114565b61117d8161113e565b840191505092915050565b600073ffffffffffffffffffffffffffffffffffffffff82169050919050565b60006111b382611188565b9050919050565b6111c3816111a8565b82525050565b6000819050919050565b6111dc816111c9565b82525050565b60008115159050919050565b6111f7816111e2565b82525050565b600060c08201905061121260008301896110e9565b8181036020830152611224818861114f565b905061123360408301876111ba565b61124060608301866111ba565b61124d60808301856111d3565b61125a60a08301846111ee565b979650505050505050565b61126e816111a8565b811461127957600080fd5b50565b60008135905061128b81611265565b92915050565b61129a816111e2565b81146112a557600080fd5b50565b6000813590506112b781611291565b92915050565b600080604083850312156112d4576112d361107c565b5b60006112e28582860161127c565b92505060206112f3858286016112a8565b9150509250929050565b600080604083850312156113145761131361107c565b5b6000611322858286016110a7565b9250506020611333858286016112a8565b9150509250929050565b611346816111c9565b811461135157600080fd5b50565b6000813590506113638161133d565b92915050565b600080600080608085870312156113835761138261107c565b5b6000611391878288016110a7565b94505060206113a2878288016110a7565b93505060406113b387828801611354565b92505060606113c487828801611354565b91505092959194509250565b60006020820190506113e560008301846111ba565b92915050565b600080fd5b600080fd5b7f4e487b7100000000000000000000000000000000000000000000000000000000600052604160045260246000fd5b61142d8261113e565b810181811067ffffffffffffffff8211171561144c5761144b6113f5565b5b80604052505050565b600061145f611072565b905061146b8282611424565b919050565b600067ffffffffffffffff82111561148b5761148a6113f5565b5b6114948261113e565b9050602081019050919050565b82818337600083830152505050565b60006114c36114be84611470565b611455565b9050828152602081018484840111156114df576114de6113f0565b5b6114ea8482856114a1565b509392505050565b600082601f830112611507576115066113eb565b5b81356115178482602086016114b0565b91505092915050565b600080600080600060a0868803121561153c5761153b61107c565b5b600061154a888289016110a7565b955050602086013567ffffffffffffffff81111561156b5761156a611081565b5b611577888289016114f2565b945050604061158888828901611354565b93505060606115998882890161127c565b92505060806115aa8882890161127c565b9150509295509295909350565b600281106115c457600080fd5b50565b6000813590506115d6816115b7565b92915050565b600080604083850312156115f3576115f261107c565b5b6000611601858286016110a7565b9250506020611612858286016115c7565b9150509250929050565b6000602082840312156116325761163161107c565b5b60006116408482850161127c565b91505092915050565b7f4e487b7100000000000000000000000000000000000000000000000000000000600052602260045260246000fd5b6000600282049050600182168061169057607f821691505b6020821081036116a3576116a2611649565b5b50919050565b60006020820190506116be60008301846111ee565b92915050565b7f496e76616c696420696400000000000000000000000000000000000000000000600082015250565b60006116fa600a83611103565b9150611705826116c4565b602082019050919050565b60006020820190508181036000830152611729816116ed565b9050919050565b600060408201905061174560008301856110e9565b61175260208301846111ee565b9392505050565b7f496e76616c696420617373657420696400000000000000000000000000000000600082015250565b600061178f601083611103565b915061179a82611759565b602082019050919050565b600060208201905081810360008301526117be81611782565b9050919050565b7f496e76616c696420757365722069640000000000000000000000000000000000600082015250565b60006117fb600f83611103565b9150611806826117c5565b602082019050919050565b6000602082019050818103600083015261182a816117ee565b9050919050565b7f4e487b7100000000000000000000000000000000000000000000000000000000600052601160045260246000fd5b600061186b826111c9565b9150611876836111c9565b925082820190508082111561188e5761188d611831565b5b92915050565b60006040820190506118a960008301856111d3565b6118b660208301846111d3565b9392505050565b7f496420616c72656164792074616b656e00000000000000000000000000000000600082015250565b60006118f3601083611103565b91506118fe826118bd565b602082019050919050565b60006020820190508181036000830152611922816118e6565b9050919050565b60008190508160005260206000209050919050565b60006020601f8301049050919050565b600082821b905092915050565b60006008830261198b7fffffffffffffffffffffffffffffffffffffffffffffffffffffffffffffffff8261194e565b611995868361194e565b95508019841693508086168417925050509392505050565b6000819050919050565b60006119d26119cd6119c8846111c9565b6119ad565b6111c9565b9050919050565b6000819050919050565b6119ec836119b7565b611a006119f8826119d9565b84845461195b565b825550505050565b600090565b611a15611a08565b611a208184846119e3565b505050565b5b81811015611a4457611a39600082611a0d565b600181019050611a26565b5050565b601f821115611a8957611a5a81611929565b611a638461193e565b81016020851015611a72578190505b611a86611a7e8561193e565b830182611a25565b50505b505050565b600082821c905092915050565b6000611aac60001984600802611a8e565b1980831691505092915050565b6000611ac58383611a9b565b9150826002028217905092915050565b611ade826110f8565b67ffffffffffffffff811115611af757611af66113f5565b5b611b018254611678565b611b0c828285611a48565b600060209050601f831160018114611b3f5760008415611b2d578287015190505b611b378582611ab9565b865550611b9f565b601f198416611b4d86611929565b60005b82811015611b7557848901518255600182019150602085019450602081019050611b50565b86831015611b925784890151611b8e601f891682611a9b565b8355505b6001600288020188555050505b505050505050565b6000604082019050611bbc60008301856110e9565b8181036020830152611bce818461114f565b90509392505050565b7f55736572496420616c72656164792074616b656e000000000000000000000000600082015250565b6000611c0d601483611103565b9150611c1882611bd7565b602082019050919050565b60006020820190508181036000830152611c3c81611c00565b9050919050565b7f4e487b7100000000000000000000000000000000000000000000000000000000600052602160045260246000fd5b6000602082019050611c8760008301846110e9565b92915050565b7f526f6c65733a204e6f7420616c6c6f7765640000000000000000000000000000600082015250565b6000611cc3601283611103565b9150611cce82611c8d565b602082019050919050565b60006020820190508181036000830152611cf281611cb6565b905091905056fea2646970667358221220e515582af1e08f2442ebf3bea66a9d17e72f4bae63dbed0b94384f66e8c0caa564736f6c63430008140033",
  "devdoc": {
    "errors": {
      "OwnableInvalidOwner(address)": [
        {
          "details": "The owner is not a valid owner account. (eg. `address(0)`)"
        }
      ],
      "OwnableUnauthorizedAccount(address)": [
        {
          "details": "The caller account is not authorized to perform an operation."
        }
      ]
    },
    "kind": "dev",
    "methods": {
      "owner()": {
        "details": "Returns the address of the current owner."
      },
      "renounceOwnership()": {
        "details": "Leaves the contract without owner. It will not be possible to call `onlyOwner` functions. Can only be called by the current owner. NOTE: Renouncing ownership will leave the contract without an owner, thereby disabling any functionality that is only available to the owner."
      },
      "transferOwnership(address)": {
        "details": "Transfers ownership of the contract to a new account (`newOwner`). Can only be called by the current owner."
      }
    },
    "version": 1
  },
  "userdoc": {
    "kind": "user",
    "methods": {},
    "version": 1
  },
  "storageLayout": {
    "storage": [
      {
        "astId": 8,
        "contract": "contracts/InvestorProfile.sol:InvestorProfile",
        "label": "_owner",
        "offset": 0,
        "slot": "0",
        "type": "t_address"
      },
      {
        "astId": 496,
        "contract": "contracts/InvestorProfile.sol:InvestorProfile",
        "label": "admins",
        "offset": 0,
        "slot": "1",
        "type": "t_mapping(t_address,t_bool)"
      },
      {
        "astId": 258,
        "contract": "contracts/InvestorProfile.sol:InvestorProfile",
        "label": "investors",
        "offset": 0,
        "slot": "2",
        "type": "t_mapping(t_bytes32,t_struct(Investor)201_storage)"
      },
      {
        "astId": 263,
        "contract": "contracts/InvestorProfile.sol:InvestorProfile",
        "label": "investmentAssets",
        "offset": 0,
        "slot": "3",
        "type": "t_mapping(t_bytes32,t_struct(InvestmentAsset)214_storage)"
      }
    ],
    "types": {
      "t_address": {
        "encoding": "inplace",
        "label": "address",
        "numberOfBytes": "20"
      },
      "t_bool": {
        "encoding": "inplace",
        "label": "bool",
        "numberOfBytes": "1"
      },
      "t_bytes32": {
        "encoding": "inplace",
        "label": "bytes32",
        "numberOfBytes": "32"
      },
      "t_enum(InvestorCategory)185": {
        "encoding": "inplace",
        "label": "enum InvestorProfile.InvestorCategory",
        "numberOfBytes": "1"
      },
      "t_mapping(t_address,t_bool)": {
        "encoding": "mapping",
        "key": "t_address",
        "label": "mapping(address => bool)",
        "numberOfBytes": "32",
        "value": "t_bool"
      },
      "t_mapping(t_bytes32,t_struct(Investment)190_storage)": {
        "encoding": "mapping",
        "key": "t_bytes32",
        "label": "mapping(bytes32 => struct InvestorProfile.Investment)",
        "numberOfBytes": "32",
        "value": "t_struct(Investment)190_storage"
      },
      "t_mapping(t_bytes32,t_struct(InvestmentAsset)214_storage)": {
        "encoding": "mapping",
        "key": "t_bytes32",
        "label": "mapping(bytes32 => struct InvestorProfile.InvestmentAsset)",
        "numberOfBytes": "32",
        "value": "t_struct(InvestmentAsset)214_storage"
      },
      "t_mapping(t_bytes32,t_struct(Investor)201_storage)": {
        "encoding": "mapping",
        "key": "t_bytes32",
        "label": "mapping(bytes32 => struct InvestorProfile.Investor)",
        "numberOfBytes": "32",
        "value": "t_struct(Investor)201_storage"
      },
      "t_string_storage": {
        "encoding": "bytes",
        "label": "string",
        "numberOfBytes": "32"
      },
      "t_struct(Investment)190_storage": {
        "encoding": "inplace",
        "label": "struct InvestorProfile.Investment",
        "members": [
          {
            "astId": 187,
            "contract": "contracts/InvestorProfile.sol:InvestorProfile",
            "label": "investmentAmount",
            "offset": 0,
            "slot": "0",
            "type": "t_uint256"
          },
          {
            "astId": 189,
            "contract": "contracts/InvestorProfile.sol:InvestorProfile",
            "label": "assetAmount",
            "offset": 0,
            "slot": "1",
            "type": "t_uint256"
          }
        ],
        "numberOfBytes": "64"
      },
      "t_struct(InvestmentAsset)214_storage": {
        "encoding": "inplace",
        "label": "struct InvestorProfile.InvestmentAsset",
        "members": [
          {
            "astId": 203,
            "contract": "contracts/InvestorProfile.sol:InvestorProfile",
            "label": "id",
            "offset": 0,
            "slot": "0",
            "type": "t_bytes32"
          },
          {
            "astId": 205,
            "contract": "contracts/InvestorProfile.sol:InvestorProfile",
            "label": "name",
            "offset": 0,
            "slot": "1",
            "type": "t_string_storage"
          },
          {
            "astId": 207,
            "contract": "contracts/InvestorProfile.sol:InvestorProfile",
            "label": "investmentToken",
            "offset": 0,
            "slot": "2",
            "type": "t_address"
          },
          {
            "astId": 209,
            "contract": "contracts/InvestorProfile.sol:InvestorProfile",
            "label": "assetToken",
            "offset": 0,
            "slot": "3",
            "type": "t_address"
          },
          {
            "astId": 211,
            "contract": "contracts/InvestorProfile.sol:InvestorProfile",
            "label": "chainId",
            "offset": 0,
            "slot": "4",
            "type": "t_uint256"
          },
          {
            "astId": 213,
            "contract": "contracts/InvestorProfile.sol:InvestorProfile",
            "label": "isActive",
            "offset": 0,
            "slot": "5",
            "type": "t_bool"
          }
        ],
        "numberOfBytes": "192"
      },
      "t_struct(Investor)201_storage": {
        "encoding": "inplace",
        "label": "struct InvestorProfile.Investor",
        "members": [
          {
            "astId": 192,
            "contract": "contracts/InvestorProfile.sol:InvestorProfile",
            "label": "userId",
            "offset": 0,
            "slot": "0",
            "type": "t_bytes32"
          },
          {
            "astId": 195,
            "contract": "contracts/InvestorProfile.sol:InvestorProfile",
            "label": "category",
            "offset": 0,
            "slot": "1",
            "type": "t_enum(InvestorCategory)185"
          },
          {
            "astId": 200,
            "contract": "contracts/InvestorProfile.sol:InvestorProfile",
            "label": "investments",
            "offset": 0,
            "slot": "2",
            "type": "t_mapping(t_bytes32,t_struct(Investment)190_storage)"
          }
        ],
        "numberOfBytes": "96"
      },
      "t_uint256": {
        "encoding": "inplace",
        "label": "uint256",
        "numberOfBytes": "32"
      }
    }
  }
}